:020000040800F2
:10000000002800208D320008D5320008D5320008C3
:10001000D5320008D5320008D532000800000000B3
:10002000000000000000000000000000CD1F0008DC
:10003000D53200080000000025200008B11C00088F
:10004000D5320008D5320008D5320008D532000874
:10005000D5320008D5320008D5320008D532000864
:10006000D5320008D5320008D5320008D532000854
:10007000D5320008D5320008D5320008D532000844
:10008000D5320008D5320008D5320008D532000834
:10009000D5320008D5320008D5320008D532000824
:1000A000D5320008D5320008D5320008D532000814
:1000B000D5320008D532000800000000D532000813
:1000C000D53200080000000000000000D532000812
:1000D00000000000C91C0008D53200080000000024
:1000E000D5320008D5320008D532000800000000E3
:1000F0000000000000000000000000000000000000
:0C01000000000000000000005FF808F1A3
:10010C0010B5054C237833B9044B13B10448AFF345
:10011C0000800123237010BD14000020000000009B
:10012C00D832000808B5034B1BB103490348AFF3A1
:10013C00008008BD0000000018000020D832000824
:10014C007047000038B50E4B054618784FF47A739B
:10015C00B3FBF0F30B4A1068B0FBF3F000F030FB8C
:10016C00044658B90F2D09D8024629464FF0FF30E6
:10017C0000F0E4FA2046044B1D6038BD0120FCE77A
:10018C00000000201000002004000020074A08B5E1
:10019C001368032043F01003136000F0BDFA0F2026
:1001AC00FFF7D0FFFFF7CCFF002008BD0020024076
:1001BC00034A044B11681B780B441360704700BF53
:1001CC005815002000000020014B1868704700BF34
:1001DC005815002038B50446FFF7F6FF0546631C9A
:1001EC001EBF044B1B78E418FFF7EEFF401BA04228
:1001FC00FAD338BD0000002070470000F7B5002589
:10020C0004460E460195FFF7DFFF236807469A6800
:10021C00D20508D50120A36A84F8245043F02003AA
:10022C00A36203B0F0BD5A68D50503D4DB6A13F49E
:10023C00700F41D0424B02201D6800F0A9FE2268CD
:10024C00404B1169B5FBF0F019423F4B56D1D568C4
:10025C003E490D4252D11169194260D1D26803F165
:10026C006E431A4214BF2923142303FB00F5019B90
:10027C00AB4225D2731C5DD0002E56D1019BAB42F4
:10028C0058D2A36A43F00403A36200230BE0701C52
:10029C0013D066B923681B6813F002030CD1A26A51
:1002AC0042F00402A26284F824300320B9E7FFF77D
:1002BC008BFFC01BB042EDD8226813689907E6D5B6
:1002CC006FF0120322681360A36A43F40073A362F5
:1002DC00936803F46023B3F5602F2FD1237B002B9D
:1002EC002CD1A36A23F48073A362A06A10F480500B
:1002FC0024D1A36A43F00103A36292E71169194266
:10030C0003D1D168124B19420BD01169114B194210
:10031C0009D1D2681A4214BFFC235423A5E7292320
:10032C00A3E75423A1E7FC239FE7FFF74DFFC01B76
:10033C00B042A3D8019B0133019398E7002070E7EA
:10034C00100000202449922492244912244992003E
:10035C0092244900499224000368D86C704700002D
:10036C00002373B5019390F82430012B6DD0012339
:10037C004D6880F82430062D026805EB85030C6867
:10038C0023D81F26556B053B9E4025EA060504FA2B
:10039C0003F32B435363092C8B6804EB44054FF098
:1003AC0007012AD9D6681E3DA94026EA0101AB40B7
:1003BC000B43D360A4F11003012B26D90023002298
:1003CC0080F82420184602B070BD0C2D4FF01F058C
:1003DC0009D8166B233B9D4026EA050504FA03F366
:1003EC002B431363D7E7D66A413B9D4026EA0505AC
:1003FC0004FA03F32B43D362CDE71669A94026EA2E
:10040C000101AB400B431361D4E7114B9A4216D157
:10041C0093681B02D2D49368102C43F400039360AE
:10042C00CCD10C4B0C4A1B68B3FBF2F20A2353439E
:10043C000193019B002BC1D0019B013BF8E7836A20
:10044C0043F0200383620123B9E70223BAE700BF1C
:10045C00002401401000002040420F00002337B55B
:10046C000193036804469A68D20702D5002003B0B2
:10047C0030BD9A6842F001029A60144B144A1B6812
:10048C00B3FBF2F30193019BE3B9FFF79DFE054625
:10049C0023689B68DB07E9D4FFF796FE401B022814
:1004AC00F6D923689B6813F00103F1D1A26A84F892
:1004BC00243042F01002A262E26A012042F00102F2
:1004CC00E262D4E7019B013BDCE700BF1000002097
:1004DC0040420F0090F8243010B5012B044654D044
:1004EC00012380F82430FFF7B9FF002849D1A36A13
:1004FC00274A23F4407323F0010343F48073A3626F
:10050C002368934204D123494A6812F4702F2ED1E8
:10051C00A26A22F48012A2625A68520541BFA26AF2
:10052C0022F4405242F48052A262A26A12F4805227
:10053C001CBFE26A22F00602E262002284F8242048
:10054C006FF002021A609A6802F46022B2F5602F12
:10055C0013D10F4A934205D1A2F58062526812F46E
:10056C00702F0AD19A6842F4A0029A6010BDA26A58
:10057C0042F48012A2624A68CFE79A6842F4801271
:10058C00F3E7002384F82430F0E70220EEE700BF05
:10059C00002801400024014038B5036804469A68DD
:1005AC00D10701D4002038BD9A6822F001029A606C
:1005BC00FFF70AFE054623689B68DB07F2D5FFF7B9
:1005CC0003FE401B0228F6D923689B68DA07F2D594
:1005DC00A36A012043F01003A362E36A43F0010312
:1005EC00E362E0E770B50446002870D0836A23B953
:1005FC00C36280F82430FFF7FFFD2046FFF7CCFFE5
:10060C00A36A13F0100FA36A63D1002861D1E169CA
:10061C0023F48853626823F0020343F002030A4375
:10062C00A168A362237BB1F5807F42EA430237D0F5
:10063C00012914BF06464FF48076257D012D06D185
:10064C0083BBA369013B46EA433545F40066236846
:10065C00B1F5807F5D6825F4694545EA06055D6066
:10066C009E681E4D05EA060545EA02059D6001D00F
:10067C00012920D1216901390905DD6A25F47005AC
:10068C002943D9629968164B0B409A4215D1002325
:10069C00E362A36A23F0030343F00103A36270BD7A
:1006AC000E46CAE7A36A43F02003A362E36A43F051
:1006BC000103E362CBE70021DFE7A36A23F0120317
:1006CC0043F01003A362E36A43F00103E3620120E9
:1006DC00E5E743F01003A362F9E700BFFDF7E1FF84
:1006EC00FE0E1FFF90F8243010B5012B044611D0DC
:1006FC00012380F82430FFF74FFF38B9A36A23F4A5
:10070C00885323F0010343F00103A362002384F810
:10071C00243010BD0220FCE7074A0002D36800F425
:10072C00E06023F4E0631B041B0C43F0BF6343F451
:10073C0000330343D360704700ED00E0174B70B5F6
:10074C00DC684FF0FF36C4F30224C4F10705042D16
:10075C0004F1040328BF0425062B98BF002406FAD5
:10076C0005F388BF033C21EA0303A34006FA04F413
:10077C0022EA0404002843EA0403A8BF00F1604005
:10078C004FEA0313B8BF064ADBB2ABBF00F56140BA
:10079C0000F00F0080F80033135470BD00ED00E042
:1007AC0014ED00E0002808DB0123420900F01F00D3
:1007BC0003FA00F0014B43F82200704700E100E01F
:1007CC000138B0F1807F0AD2F021064B064A5860FE
:1007DC0082F823100020072298601A6070470120CD
:1007EC00704700BF10E000E000ED00E090F8213011
:1007FC00022B06D004238363002380F820300120D1
:10080C0070470368C16B1A6822F00E021A601A68EE
:10081C0022F001021A600122036C02FA03F34B600E
:10082C00002380F8212080F8203018467047000003
:10083C0090F8213010B5022B03D0042383630120E0
:10084C0010BD03681A6822F00E021A601A6822F0B2
:10085C0001021A60184A93421FD0143293421ED0E0
:10086C00143293421DD0143293421DD01432934251
:10087C001DD0143293420CBF4FF480134FF0807391
:10088C000E4A00245360012380F82130436B80F81A
:10089C0020407BB198472046D2E70123F0E7102394
:1008AC00EEE74FF48073EBE74FF48053E8E74FF437
:1008BC008033E5E71846C3E7080002400000024019
:1008CC002DE9F74F00242646624BDFF89CC1DFF878
:1008DC009CE10A6832FA06F502D103B0BDE8F08F4C
:1008EC004FF0010808FA06F802EA0802904579D19F
:1008FC004D68122D00F0A4807DD8022D00F09D8053
:10090C0072D8002D00F08480012D00F094804FF0FF
:10091C000F09FF2A93BF824606F18045083DD0F8A7
:10092C0000B092BFB500D0F804B0AD0009FA05F8DC
:10093C002BEA080804FA05F588BF00F1040A48EA16
:10094C000505CAF80050D1F804A01AF0805F49D010
:10095C00414F26F00308BD6908F1804845F00105B8
:10096C00BD61BD6908F5803805F00105019506F0FB
:10097C00030B019D4FEA8B0BD8F8085009FA0BF9C1
:10098C0025EA0909354DA8425FD005F58065A842D6
:10099C005DD005F58065A8420CBF0225032505FA3C
:1009AC000BF545EA0905C8F808509D681AF4801F34
:1009BC0014BF154395439D60DD681AF4001F14BFE6
:1009CC0015439543DD605D681AF4003F14BF154371
:1009DC0095435D601D681AF4803F14BF2A4325EAD5
:1009EC0002021A60013674E7032D22D0112D8ED12C
:1009FC00CC6804348BE71A4FBD4209D012D8DFF80B
:100A0C0070904D4504D009F580394D457FF47FAF8A
:100A1C008C68C4B1012C0CBFC0F81080C0F81480D5
:100A2C00082474E70F4FBD42F2D06545F0D07545F0
:100A3C00ECE700246BE7CC6869E7CC68083466E720
:100A4C00CC680C3463E7042461E70025A7E7012593
:100A5C00A5E700BF0004014000100240000801405F
:100A6C000000211000003110000032100000221094
:100A7C00000011100AB1016170470904FBE7C3685B
:100A8C0001EA030221EA030141EA024101617047D4
:100A9C002DE9F341054608B901203CE00368DB076A
:100AAC0010D42B689F075DD42B68190700F1948034
:100ABC002B685A0700F1BE80E869002840F02C81B1
:100ACC00002028E08F4C636803F00C03042B07D044
:100ADC00636803F00C03082B09D16368DE0306D5A9
:100AEC0023689C03DDD56B68002BDAD1D4E76B68E7
:100AFC00B3F5803F12D1236843F480332360FFF7B2
:100B0C0063FB064623689803CBD4FFF75DFB801B81
:100B1C006428F7D9032002B0BDE8F0819BB92368A3
:100B2C0023F480332360236823F480232360FFF7AE
:100B3C004BFB064623689903B3D5FFF745FB801B97
:100B4C006428F7D9E6E7B3F5A02F236803D143F463
:100B5C0080232360CFE723F480332360236823F4BE
:100B6C008023CBE7674C636813F00C0F07D06368E6
:100B7C0003F00C03082B10D16368DA030DD423683F
:100B8C009B0702D52B69012B86D123686A6923F058
:100B9C00F80343EAC203236086E72A695A4B6AB119
:100BAC0001221A60FFF710FB064623689F07ECD45E
:100BBC00FFF70AFB801B0228F7D9ABE71A60FFF797
:100BCC0003FB0646236898077FF56EAFFFF7FCFA28
:100BDC00801B0228F6D99DE7AA694A4C4B4BDAB127
:100BEC0001221A60FFF7F0FA0646636A9B070DD5DF
:100BFC004FF4FA52464B1B68B3FBF2F3019300BF60
:100C0C00019B5A1E0192002BF9D151E7FFF7DCFA38
:100C1C00801B0228E9D97DE71A60FFF7D5FA064652
:100C2C00636A9F077FF544AFFFF7CEFA801B02285B
:100C3C00F6D96FE7334CE369D80024D40127E36974
:100C4C0043F08053E361E36903F080530093009B0E
:100C5C00304E3368D90518D5EB68012B26D1236AA1
:100C6C0043F001032362FFF7AFFA41F28836804666
:100C7C00236A9B073FD5002F3FF41EAFE36923F097
:100C8C008053E36118E70027E2E7336843F480738D
:100C9C003360FFF799FA80463368DA05DCD4FFF746
:100CAC0093FAA0EB08006428F6D933E7ABB9236AB2
:100CBC0041F2883823F001032362236A23F00403F2
:100CCC002362FFF781FA0646236A9807D3D5FFF70C
:100CDC007BFA801B4045F7D91CE7052B236A03D10F
:100CEC0043F004032362BAE723F001032362236A6F
:100CFC0023F00403B6E7FFF767FAA0EB0800B04255
:100D0C00B6D907E70010024000004242800442427C
:100D1C0010000020007000402A4B5A681C4602F05C
:100D2C000C02082A3DD00023274E022833602BD119
:100D3C00FFF74AFA0746236899011FD42B6AB3F5CB
:100D4C00803F05D16268A96822F400320A436260D0
:100D5C00696A62680B4322F47412134363600123C3
:100D6C003360FFF731FA054623689A013FF5A8AEC8
:100D7C00FFF72AFA401B0228F6D9CBE6FFF724FA34
:100D8C00C01B0228D7D9C5E6FFF71EFA0546236813
:100D9C009B017FF595AEFFF717FA401B0228F6D999
:100DAC00B8E601283FF4B7AE58682B6A00F48032DD
:100DBC009A427FF471AE6B6A00F47010C01A18BFBF
:100DCC000120A8E600100240600042420D494B6829
:100DDC0003F00C02082A12D10B48C3F38342DB0345
:100DEC00825C09D509484B685043094AC3F3404318
:100DFC00D35CB0FBF3F07047064850437047034890
:100E0C00704700BF00100240F032000800127A0058
:100E1C000033000800093D002DE9F0410D46044661
:100E2C0010B90120BDE8F081444A136803F00703B0
:100E3C008B4228D321688E0730D4CA0743D43F4A4B
:100E4C00136803F00703AB4265D822683C4D12F0DF
:100E5C00040F6CD1130706D56B68226923F4605319
:100E6C0043EAC2036B60FFF7B1FF6B68354AC3F30B
:100E7C000313D35CD840344B1860344B1868FFF71D
:100E8C0061F90020CEE7136823F007030B431360CE
:100E9C00136803F007038B42C3D1CBE7284B11F047
:100EAC00040F1EBF5A6842F4E0625A60080742BF42
:100EBC005A6842F460525A605A68A06822F0F002F4
:100ECC0002435A60B9E762681D4E012A33681AD191
:100EDC0013F4003FA5D0736841F2883823F0030364
:100EEC0013437360FFF770F907467368626803F089
:100EFC000C03B3EB820FA2D0FFF766F9C01B404581
:100F0C00F3D903208EE7022A02D113F0007FE1E728
:100F1C0013F0020FDEE7136823F007032B43136073
:100F2C00136803F00703AB427FF47BAF8DE76B686C
:100F3C00E16823F4E0630B436B608BE70020024015
:100F4C00001002403833000810000020040000207C
:100F5C00044B054A5B68C3F30223D35C034A106855
:100F6C00D8407047001002404833000810000020A1
:100F7C00044B054A5B68C3F3C223D35C034A106875
:100F8C00D840704700100240483300081000002081
:100F9C00022808B542D0102816D001284AD140F2B8
:100FAC000231254A136A1940B1F5817F3FD003F411
:100FBC004073B3F5007F28D149F64040536A13F0D3
:100FCC00020F08BF002008BD1B4B5A68186810F0B0
:100FDC008070F8D0C2F383411848D20348BF5A68D6
:100FEC00405C41BF1649C2F34042895C154A5B68BC
:100FFC004CBFB2FBF1F2144A5B0202FB00F0E2D4EC
:10100C0003234000B0FBF3F0DDE7B3F5407F11D1D3
:10101C0013684FF2244013F4003FD2E7FFF7A8FF08
:10102C00054B5B68C3F3813301335B00EAE74FF494
:10103C000040C8E70020C6E7001002400233000859
:10104C001233000800127A0000093D0070470C2989
:10105C0014D8DFE801F0071313130A1313130D133D
:10106C00131310000368586B70470368986B704734
:10107C000368D86B70470368186C70470020704782
:10108C00194A10B59042036805D0B0F1804F02D0D8
:10109C00164CA04210D14C6823F07003904243EAE6
:1010AC00040305D0B0F1804F02D0104A904203D116
:1010BC00CA6823F4407313434A6923F08003134333
:1010CC0003608B68C3620B688362074B984204BF52
:1010DC000B690363012343610369DB0742BF0369A7
:1010EC0023F00103036110BD002C014000040040FB
:1010FC0010B5044630B390F83D3003F0FF021BB935
:10110C0080F83C20FFF7A2FF0223206884F83D30D2
:10111C00211DFFF7B5FF0123002084F8463084F829
:10112C003E3084F83F3084F8403084F8413084F805
:10113C00423084F8433084F8443084F8453084F8E5
:10114C003D3010BD0120FCE770B5056A046A104EF5
:10115C0024F001040462B042846915D0B0F1804FD0
:10116C0012D0A6F59436B0420ED044F001021B0109
:10117C00DBB222F0F0021A4301F00A0125F00A0357
:10118C0019438261016270BD24F003042243EEE72F
:10119C00002C0140F8B590F83C300546012B0C466C
:1011AC0000F08880012085F83C0092B9CB68286853
:1011BC0006C9FFF7C9FF2B68A1689A6922F00C02D7
:1011CC009A619A690A439A610020002385F83C30A1
:1011DC00F8BD042A23D1D1E9002C2B68C9681E6AFA
:1011EC001F6A090327F010071F62986989B220F45F
:1011FC00407040EA0C2020F470401201014302F0D0
:10120C00A00226F0A000024399611A629A69A168B3
:10121C0022F440629A619A6942EA0122D3E7082AD1
:10122C0022D1D1E900202B68C9681E6A1F6A090106
:10123C0027F480771F62DF69C9B227F003073843B0
:10124C0020F0F0001202014302F4007226F4007048
:10125C000243D9611A62DA69A16822F00C02DA61E0
:10126C00DA690A43DA61AFE70C2AAED1D1E9002C76
:10127C002B68C9681E6A1F6A090327F480571F620E
:10128C00D86989B220F4407040EA0C2020F47040F8
:10129C001203014302F4005226F400500243D961B8
:1012AC001A62DA69A16822F44062DA61DA6942EA08
:1012BC000122D7E702208BE710B50124036A01F065
:1012CC001F018C4023EA04030362036A8A401A4319
:1012DC00026210BD10B5044651BB90F83E0094F864
:1012EC004230C0B20128DBB24AD1012B49D10223D2
:1012FC00002933D184F83E3084F842300122206832
:10130C00FFF7DAFF23681F4A934206D0B3F1804FF0
:10131C0003D0A2F59432934204D19A6802F00702EA
:10132C00062A03D01A6842F001021A60002028E055
:10133C00042905D190F83F0094F84330C0B2D1E7AE
:10134C00082909BF90F8400094F84100C0B294F805
:10135C0044301CBFC0B294F84530C3E7042904D113
:10136C0084F83F3084F84330C8E708290BBF84F871
:10137C00403084F8413084F8443084F84530BDE77F
:10138C00012010BD002C0140026802F10C0353E84F
:10139C00003F23F490730C3242E8003102680029BC
:1013AC00F2D102F1140353E8003F23F0010302F1E0
:1013BC00140C4CE800310029F3D1036B012B0BD139
:1013CC0002F10C0353E8003F23F0100302F10C0C64
:1013DC004CE800310029F3D1202380F8423000235F
:1013EC000363704710B504460368C1681A6922F498
:1013FC0040520A431A6182680069D96802436069E5
:10140C0021F4B05121F00C0102430A43DA605A690D
:10141C00A16922F440720A435A610E4A934215D1D3
:10142C00FFF7A6FD19235843636864229B00B0FBA9
:10143C00F3F0B0FBF2F102FB11031B013233B3FBEF
:10144C00F2F3246803EB0113A36010BDFFF780FDDA
:10145C00E8E700BF00380140F7B504460D461746D3
:10146C001E4621680B6835EA030301D1002021E0F8
:10147C00701CF7D0FEF7A8FEC01B86421CD3DEB151
:10148C002068C3685A07ECD5802DEAD0402DE8D0EF
:10149C0003681B07E5D50025019503680193436894
:1014AC0020460193019BFFF76FFF08230120636423
:1014BC0084F8405003B0F0BD0320FBE7704710B533
:1014CC00044648B390F8413003F0FF021BB980F892
:1014DC004020FFF7F3FF2423226884F84130D368BF
:1014EC00204623F40053D360FFF77CFF23680020D1
:1014FC001A6922F490421A615A6922F02A025A613E
:10150C00DA6842F40052DA602023606484F84130D7
:10151C0084F84230606310BD0120FCE72DE9F843EC
:10152C00984690F841300446202B0E46914641D106
:10153C00002941D0002A3FD021230025456480F8A2
:10154C004130FEF741FEA3680746B3F5805FA4F86F
:10155C002490A4F8269003D123690BB935461E4676
:10156C00E38C9BB25BB943463A4640212046FFF7D9
:10157C0073FF202384F8413058B9BDE8F883434603
:10158C003A4680212046FFF767FF20B1202384F8DC
:10159C0041300320F1E722684EB935F8023BC3F322
:1015AC0008035360E38C013B9BB2E384D8E716F845
:1015BC00013BF6E70220E0E70120DEE770477047C9
:1015CC0008B50023406AC385C384FFF7F8FF08BD44
:1015DC00704790F8423013B5222B53D18168836A3F
:1015EC00B1F5805F02683ED1016900293ED1526895
:1015FC00C2F3080223F8022BC48D8362013CA4B20F
:10160C00C485002C2DD10368DA6822F02002DA6040
:10161C00DA6822F48072DA605A6922F001025A61A7
:10162C00202380F842304463036B012B036826D1DE
:10163C00046303F10C0252E8002F22F0100203F1B4
:10164C000C0444E800210029F3D11A68D20605D510
:10165C0001911A6801925B680193019B818DFFF7E0
:10166C00B7FF00200FE031B9016921B952681A7037
:10167C00836A0133C0E7526802F07F02F7E700F09B
:10168C0077F9EEE7022002B010BD0000036837B511
:10169C001A68044612F00F0FD9685D6908D19506D7
:1016AC0066D58D0664D503B0BDE83040FFF791BF19
:1016BC0015F0010502D111F4907F59D0D00705D552
:1016CC00CB0542BF636C43F001036364500704D540
:1016DC001DB1636C43F002036364930704D51DB121
:1016EC00636C43F004036364100706D58B0600D4C7
:1016FC001DB1636C43F008036364636C002B31D041
:10170C00900604D5890602D52046FFF762FF2368B0
:10171C0020465D69626C120702D415F0400523D097
:10172C00FFF732FE226853695B0618D502F11403E9
:10173C0053E8003F23F0400302F1140040E800316D
:10174C000029F3D1E06B50B1734B4363FFF770F892
:10175C0040B1E06B436B03B0BDE830401847204606
:10176C00FFF72DFF03B030BDFFF729FF6564F9E7E4
:10177C00206B012840F09480D50640F19180C8067A
:10178C0040F18E80002201921A6801925A680192EF
:10179C00019A5A6955064DD5E16B0A68526892B2A6
:1017AC00002ADFD0A08D9042DCD9E2858A69202AFC
:1017BC0036D003F10C0252E8002F22F4807203F1B0
:1017CC000C0040E800210029F3D103F1140252E887
:1017DC00002F22F0010203F1140040E8002100293F
:1017EC00F3D103F1140252E8002F22F0400203F16E
:1017FC00140040E800210029F3D1202284F8422073
:10180C00216303F10C0252E8002F22F0100203F1C5
:10181C000C0040E800210029F3D1E06BFEF7E6FF55
:10182C0002236363E38DA18DC91A89B22046FFF7A9
:10183C00CFFE97E7E18D8AB2E18D89B2002991D074
:10184C00A18D891A89B200298CD003F10C0252E8BF
:10185C00002F22F4907203F10C0545E800200028BB
:10186C00F3D103F1140252E8002F22F0010203F12C
:10187C00140545E800200028F3D1202284F84220EA
:10188C00206303F10C0252E8002F22F0100203F146
:10189C000C0545E800200028F3D102236363C5E75B
:1018AC00100628D50D0626D594F84120212A7FF460
:1018BC0059AFA168226AB1F5805F17D12169A9B926
:1018CC0032F8021BC1F3080159602262E28C013A22
:1018DC0092B2E284002A7FF445AFDA6822F08002EB
:1018EC00DA60DA6842F04002DA603BE7511C2162B0
:1018FC0012785A60EAE750067FF534AF4A067FF556
:10190C0031AFDA68204622F04002DA60202384F8F6
:10191C004130FFF753FE25E7CD1500080023C285A3
:10192C00436422238285026980F842308162036815
:10193C001AB1DA6842F48072DA605A69002042F017
:10194C0001025A61DA6842F02002DA60704770B422
:10195C0090F84260202E06D141B13AB100240463C4
:10196C0070BCFFF7DBBF022070BC70470120FBE7A7
:10197C0037B5154B02689A4224D1144C2378072BA7
:10198C0005D85A1C2270124A1178124AD154237865
:10199C00072B12D90025104B02A9186841F8045DD9
:1019AC0000F00AFD019B25703BB14FF080520B4BB0
:1019BC001A60BFF34F8FBFF36F8F012204490848A1
:1019CC00FFF7C5FF03B030BD0038014031000020E7
:1019DC0030000020400000204800002004ED00E012
:1019EC008C15002010B590B02022002107A801F022
:1019FC003EFC1422002101A801F039FC1023012225
:101A0C000224CDE90A234FF4601306A806940D9422
:101A1C000F93FFF73DF800B1FEE70F23CDE901343A
:101A2C004FF480630390CDE90430214601A8FFF701
:101A3C00F3F900B1FEE710B010BD000080B58CB01A
:101A4C00FEF7A4FBFFF7CEFF1022002108A801F03F
:101A5C000EFC824B00249A69012642F004029A6122
:101A6C009A697F4802F004020292029A9A694FF036
:101A7C00030942F008029A619A694FF0020802F0D9
:101A8C0008020392039A9A69764D42F010029A6109
:101A9C009A6902F010020492049A9A6942F4804204
:101AAC009A619A6902F480420592059A9A6942F405
:101ABC0000729A619A6902F400720692069ADA69C7
:101ACC0042F00102DA610122DB69114603F00103E5
:101ADC000793079BFEF7CEFF00224FF4005162489C
:101AEC00FEF7C8FF08A96148CDE908640A94FEF71F
:101AFC00E7FE062308A95D48CDE90839FEF7E0FEAC
:101B0C004FF4007308A95948CDE90838CDF82C904A
:101B1C00FEF7D6FE4FF4806308A95448CDE908348B
:101B2C000A94FEF7CDFE08A94D48CDE90866CDE92B
:101B3C000A48FEF7C5FE4FF4005308A94A48CDE900
:101B4C000836CDE90A48FEF7BBFE052122462520C2
:101B5C00FEF7F4FD2520FEF725FE4FF4E133444952
:101B6C002846C5E900130C23C5E902442C61C5E9DC
:101B7C000534EC61FFF7A3FC00B1FEE73D4B3E4A98
:101B8C0098601A604FF460221873187558601846E4
:101B9C00DA611E61FEF726FD044600B1FEE7014640
:101BAC00102208A801F063FB4FF080424723334F0B
:101BBC00C7E900234FF6FF733846BC60C7E903340E
:101BCC00FFF796FA024600B1FEE74FF0040ACDE9A2
:101BDC0008060A9008A93846CDF82CA0FFF7DAFAC7
:101BEC00044600B1FEE701463846FFF773FB4A4650
:101BFC002146304600F040FB214F22463860082138
:101C0C00052000F039FB1F4B186008B33B68FBB193
:101C1C0032461D492846FFF79AFE234680221B496F
:101C2C00CDE900641A4800F081FD23468022194951
:101C3C00CDE90084184800F079FD23464FF48072FA
:101C4C001649CDE900A4164800F070FD00F054FED2
:101C5C004FF47A70FEF7BEFAFAE700BF00100240AC
:101C6C00000C01408C1500200010014000080140C0
:101C7C00003801405C15002000240140D4150020E0
:101C8C0048000020340000203000002014330008ED
:101C9C001D1F00081E330008D51C0008283300083F
:101CAC00591E000808B5FEF783FA01F0E9F801287F
:101CBC0003D0BDE8084000F0D1B908BD0148FFF7DA
:101CCC00E5BC00BF8C15002001222DE9F341114623
:101CDC002348FEF7CFFE00224FF400512148FEF7B7
:101CEC00C9FE00F057FE002305461F4C1D4F8DF812
:101CFC000630DFF878801A4E0A226946D8F80000C0
:101D0C0000F08EFB0128024616D1BDF80230BDF85A
:101D1C00001063809DF80600BDF804305029218026
:101D2C00A380E08001D8822B14D9012100228DF8E8
:101D3C0006103046FEF79EFE00F02CFE401BB0F560
:101D4C007A7FD9D34FF400513846FEF798FE05F54B
:101D5C007A75CEE7002311468DF80630E9E700BF0F
:101D6C00000C01400010014038000020340000201D
:101D7C0070B54FF6FF7304464AF20105221A92B26F
:101D8C00914201D8184670BD14F8012B534008221B
:101D9C0003F001065B080EB16B409BB2013A12F0E6
:101DAC00FF02F5D1EAE7000008297FB504463CD1D3
:101DBC000378012B39D14378032B36D10621FFF759
:101DCC00D7FFE279A37943EA022383422DD1A3788A
:101DDC00E278217942EA0322637943EA01231BB2B8
:101DEC009CB21119042920DC5B0040F201318DF802
:101DFC0002300023134DADF8001099B28C4216D866
:101E0C006600B5B2E91C89B26846FFF7B1FF04ABB6
:101E1C001E4406F80D0C6A1D000A06F80C0C64230F
:101E2C0092B269460848FFF779FB04B070BDD1182F
:101E3C0035F811000DEB4301060ACE700871013321
:101E4C00DBE700BF380000208C15002008B5074DDB
:101E5C00074C4FF0FF31286800F05AFB0128F8D1ED
:101E6C0008212046FFF7A0FFF3E700BF4800002041
:101E7C004000002010B50948FEF72CFB0A2107484A
:101E8C00FEF7BCF940B90548FEF766FA84B2034880
:101E9C00FEF728FC204610BD0024F8E75C15002056
:101EAC001FB50123CDE90133052301A9054803938F
:101EBC00FEF756FA20B9FFF7DDFF05B05DF804FB1D
:101ECC000020FAE75C1500201FB501230222CDE9A2
:101EDC000123052301A906480393FEF741FA20B913
:101EEC00FFF7C8FF05B05DF804FB0020FAE700BF60
:101EFC005C15002008B500210448FFF7A8F818B1BC
:101F0C004CF25033B3FBF0F008BD00BFD4150020E9
:101F1C001FB500238DF80E3000F03CFD0E4C0190E7
:101F2C00FFF7BEFFADF80800FFF7CEFFADF80A00D3
:101F3C009DF80E00FFF7DEFFADF80C00206820B115
:101F4C00002302A91A4600F0B9F94FF4FA7101A85E
:101F5C0000F090FEE4E700BF34000020002382B0C4
:101F6C0001934FF0500383F31188BFF36F8FBFF3CE
:101F7C004F8F019B002BFCD002B0704706480068C5
:101F8C00006880F3088862B661B6BFF34F8FBFF369
:101F9C006F8F00DF00BF000008ED00E04FF0807392
:101FAC0040F8043C054B21F0010140F8081C40F8B6
:101FBC000C3C40F8202C4038704700BF691F0008CB
:101FCC00074B19680868B0E8F00F80F30988BFF375
:101FDC006F8F4FF0000080F311884EF00D0E70479C
:101FEC004C0000204FF0500383F31188BFF36F8F28
:101FFC00BFF34F8F024A136801331360704700BF61
:10200C0008000020034A1368013B13600BB983F3EB
:10201C001188704708000020EFF30980BFF36F8F21
:10202C000D4B1A6820E9F00F10602DE908404FF0B5
:10203C00500080F3118800F049FE4FF0000080F34F
:10204C001188BDE8084019680868B0E8F00F80F303
:10205C000988BFF36F8F70474C00002008B54FF014
:10206C00500383F31188BFF36F8FBFF34F8F00F0D2
:10207C009DFC18B14FF08052024B1A60002383F381
:10208C00118808BD04ED00E00022054B05491A60DB
:10209C000A604FF6FF11044A116007221A6070475C
:1020AC0010E000E018E000E014E000E010B50024BF
:1020BC000B4B1A6842F47F021A601A6842F07F4296
:1020CC001A6043F8044CFFF7DFFF064B1C60FFF768
:1020DC0055FF00F0FBFDFFF741FF204610BD00BF90
:1020EC0020ED00E00800002010B50446FFF77AFF51
:1020FC00A46BFFF787FFB4FA84F0400910BD70B5EC
:10210C001546026C0446866B42B905689DB9806819
:10211C0000F00EFFA5600136A66370BD6DB9406876
:10212C0001F09AF86368226C1344A26863609342CE
:10213C0001D3236863600020EDE7C06801F08CF8E0
:10214C00236CE2685B4221681A448A42E2603EBF1B
:10215C00A2689B18E360022DEDD10EB1013EEAE7B7
:10216C003046D8E703461A6C10B4084662B1D968F9
:10217C009C681144A142D96028BF196810BC28BFC3
:10218C00D960D96801F068B810BC704770B50446C6
:10219C00FFF728FF94F8455004F124066DB2002D8A
:1021AC0014DCFF2384F84530FFF72CFFFFF71AFFF0
:1021BC0094F8445004F110066DB2002D12DCFF238C
:1021CC0084F84430BDE87040FFF71CBF636A002BF5
:1021DC00E7D0304600F0BCFD08B100F04BFE013DED
:1021EC006DB2DCE72369002BE9D0304600F0B0FD7E
:1021FC0008B100F03FFE013D6DB2DEE7F8B50D46CB
:10220C00044610B3C06B00B3266CA0FB0667DFB9A5
:10221C00FFF7E8FED4E90F314B432268A763D018CF
:10222C005B1A1344E360FF23A06084F844306260BF
:10223C0084F8453055B104F1100000F0B3FF04F1FF
:10224C00240000F0AFFF10E00020F8BD236963B15B
:10225C0004F1100000F07CFD38B14FF08052054BBA
:10226C001A60BFF34F8FBFF36F8FFFF7CBFE0120C8
:10227C00EBE700BF04ED00E070B50D46064610B963
:10228C000024204670BDA1FB0023002BF8D148434D
:10229C0010F1490FF4D8483000F0C0FE0446002875
:1022AC00EED03DB92060C4E90F6501212046FFF74F
:1022BC00A5FFE6E700F148030360F4E72DE9FF47CB
:1022CC00002604468A461F46B046DFF8E890019285
:1022DC00FFF788FEA26BE36B9A4201D3022F19D150
:1022EC003A4651462046FFF70AFF636A1BB104F1D8
:1022FC00240000F02DFD38B14FF080522D4B1A60A8
:10230C00BFF34F8FBFF36F8FFFF77CFE012004B03C
:10231C00BDE8F087019D1DB9FFF774FE0020F6E7BC
:10232C0016B902A800F074FDFFF76CFE00F02AFB52
:10233C00FFF758FE94F84430FF2B08BF84F8448014
:10234C0094F84530FF2B08BF84F84580FFF75AFE00
:10235C0001A902A800F068FD28BBFFF743FEA26BA1
:10236C00E36B9A420ED1FFF74DFE019904F1100078
:10237C0000F0E0FC2046FFF709FF00F0D1FB48B16C
:10238C000126A5E7FFF73EFE2046FFF7FFFE00F013
:10239C00C7FBF5E74FF08053C9F80030BFF34F8F00
:1023AC00BFF36F8FECE72046FFF7F0FE00F0B8FBB1
:1023BC00B4E700BF04ED00E0F8B505460F46EFF3B7
:1023CC0011864FF0500383F31188BFF36F8FBFF367
:1023DC004F8F836BC26B9A421FD990F845400133E3
:1023EC0064B28363631C0FD1436A0BB9012008E00C
:1023FC00243000F0ADFC0028F8D0002FF6D00120DE
:10240C00386086F31188F8BD00F0CAFA84423EBFEA
:10241C00013464B285F84540E8E70020F1E700009C
:10242C002DE9F043002604468846374685B0DFF890
:10243C00DC900192FFF7D6FDA56BD5B14146204645
:10244C00FFF790FE2369013DA56363B104F1100011
:10245C0000F07EFC38B14FF080522C4B1A60BFF369
:10246C004F8FBFF36F8FFFF7CDFD012005B0BDE897
:10247C00F083019D1DB9FFF7C5FD0020F6E716B9E5
:10248C0002A800F0C5FCFFF7BDFD00F07BFAFFF7DA
:10249C00A9FD94F84430FF2B08BF84F8447094F8DD
:1024AC004530FF2B08BF84F84570FFF7ABFD01A941
:1024BC0002A800F0B9FCF0B92046FFF715FEA0B158
:1024CC00019904F1240000F035FC2046FFF75EFE74
:1024DC0000F026FB38B94FF08053C9F80030BFF339
:1024EC004F8FBFF36F8F0126A4E72046FFF74EFEF8
:1024FC0000F016FBF7E72046FFF748FE00F010FB54
:10250C002046FFF7F1FD0028EDD0B6E704ED00E022
:10251C002DE9F043002504462F462E4685B0DFF802
:10252C0014910191FFF75EFDA36BE3B1013BA36333
:10253C00236813B900F068FDA060236963B104F14E
:10254C00100000F005FC38B14FF08052394B1A6086
:10255C00BFF34F8FBFF36F8FFFF754FD0125284654
:10256C0005B0BDE8F083DDF80480B8F1000F03D1AD
:10257C00FFF748FD0025F2E717B902A800F048FC68
:10258C00FFF740FD00F0FEF9FFF72CFD94F8443006
:10259C00FF2B08BF84F8446094F84530FF2B08BF2C
:1025AC0084F84560FFF72EFD01A902A800F03CFC61
:1025BC0040BB2046FFF798FDF0B123683BB9FFF70D
:1025CC0011FDA06800F06CFC0546FFF71BFD01999E
:1025DC0004F1240000F0AEFB2046FFF7D7FD00F01D
:1025EC009FFA38B94FF08053C9F80030BFF34F8FC2
:1025FC00BFF36F8F012795E72046FFF7C7FD00F06B
:10260C008FFAF7E72046FFF7C1FD00F089FA204664
:10261C00FFF76AFD0028EDD0002DA0D0FFF7E2FCFB
:10262C00616A19B1236B1968C1F10501A06800F04A
:10263C00B1FC9DE704ED00E0064A13681968064BEF
:10264C0019B94FF0FF321A6070471268D2681268DD
:10265C00F9E700BF50000020FC0000202DE9F041FC
:10266C000646114B114D1C68114B1F68114BD3F8CA
:10267C0000802868043000F0BAFD2B682968A41982
:10268C005C6001F1040104D34046BDE8F04100F068
:10269C0097BD384600F094FD074B1A68944238BF3A
:1026AC001C60BDE8F08100BF340100204C0000200C
:1026BC005000002054000020FC000020F8B50E4C07
:1026CC000E4F0F4E236803B9F8BDFFF78BFCFB6868
:1026DC00DD68281D00F08BFD3368013B33602368F7
:1026EC00013B2360FFF78EFC286B00F013FD28469E
:1026FC0000F010FDE6E700BFC00000202001002024
:10270C00BC0000204FF0805508B5064E064CFFF774
:10271C00D5FF3368012BFAD92560BFF34F8FBFF378
:10272C006F8FF4E75800002004ED00E02DE9F0472E
:10273C004FEA820A0746504689469846099E00F0A1
:10274C006DFC0546002800F09480542000F066FCD7
:10275C000446002800F08A80AAF1040A54220021C1
:10276C0000F085FD2563554425F0070AB9F1000FEB
:10277C0040F08380089D04F10409042D28BF042532
:10278C004846E562656400F018FDC5F1050504F1E5
:10279C00180000F012FD2461A561646242463946BE
:1027AC005046FFF7FBFB206006B13460FFF71AFCC4
:1027BC00404B414D1A68414E01321A602A68002A7A
:1027CC006DD12C601B68012B22D13D4800F0EAFC36
:1027DC003C4800F0E7FC3C4800F0E4FCDFF81481D6
:1027EC003A4800F0DFFC3A4F3A4800F0DBFC404638
:1027FC0000F0D8FC384600F0D5FC374800F0D2FC8D
:10280C00364800F0CFFC364BC3F80080354B1F60C8
:10281C00354A136801331360344BE26A19688A42F3
:10282C0088BF1A60142353432549CF187A689068DF
:10283C00A260E0609068C0F80490C2F80890CA5892
:10284C0067610132CA50FFF7DDFB336863B12B6857
:10285C00DA6AE36A9A4207D24FF08052244B1A602C
:10286C00BFF34F8FBFF36F8F012004E0284600F0B9
:10287C0051FC4FF0FF30BDE8F08709F1FF3304F154
:10288C00340209F10F0913F8011F02F8011B197822
:10289C0009B19945F7D1002384F843306AE73368CE
:1028AC00002BB5D12B68DA6AE36A9A4298BF2C6088
:1028BC00AEE700BFBC0000204C0000201C01002033
:1028CC00580000206C0000208000002094000020A4
:1028DC00E4000020A80000200801002020010020B6
:1028EC005000002054000020C8000020CC00002024
:1028FC0004ED00E0D000002030B587B002AD00211F
:10290C001022284600F0B3FC002317495A5CEA5405
:10291C0012B101330F2BF9D1002406AA134403F88A
:10292C00104C124B8022CDE9004329462346104817
:10293C00FFF7FCFE012803D00E4B1B6807B030BD1F
:10294C004FF0500383F31188BFF36F8FBFF34F8F9A
:10295C004FF0FF32084B1A60084B1860084B1C6094
:10296C00FFF7A4FBE8E700BF33330008F8000020B2
:10297C00112700080C000020FC0000201C01002086
:10298C0034010020024A136801331360704700BF02
:10299C00C4000020014B1868704700BF34010020B0
:1029AC00014B1868704700BFBC000020514B2DE94B
:1029BC00F74F1B68002B40F097804F4B1C6801347D
:1029CC001C605CB94D4A4E4B1168186810604D4A3A
:1029DC001960136801331360FFF72EFE4A4A00207A
:1029EC00136801929C42494910D2494B1B68DA6A20
:1029FC0014235343CB58022B464B28BF01201B6892
:102A0C00002B18BF012003B0BDE8F08F07464FF034
:102A1C00140B3A4EDFF804C133681B6823B94FF02E
:102A2C00FF33019A1360E0E73368DB68DB685D68AD
:102A3C00AC4202D2019B1D60D7E7D3F81480D3E9D6
:102A4C0002E5CEF80850DD68D8F80420C5F804E09B
:102A5C0003F1040E724508BFC8F80450D8F80050B2
:102A6C005F61013DC8F80050D3F82880B8F1000F21
:102A7C0014D0D3E90752AA60D3F820A003F11809A7
:102A8C00CAF80450D8F804504D45D8F8005008BF87
:102A9C00C8F804A0013D9F62C8F80050D3F82C8000
:102AAC00DCF800500BFB08FAA84501EB0A05D5F839
:102ABC00049088BFCCF80080D9F80820C3F808909F
:102ACC00DA60D9F80820C2F804E0C9F808E05D61C2
:102ADC0051F80A30013341F80A300D4B1B68DB6AA0
:102AEC00984588BF012097E70B4A002013680133F3
:102AFC00136088E7C400002034010020500000203F
:102B0C005400002000010020FC0000205800002090
:102B1C004C0000203801002004010020CC000020D3
:102B2C002DE9F84FFFF75EFA494B1A68013A1A6023
:102B3C001B682BB10024FFF765FA2046BDE8F88F1F
:102B4C00444A1268002AF5D04348444C444A4FF09A
:102B5C00140CDFF818B1434E012755E0C368DB684D
:102B6C00D3F828E0D3E90791C9F80810196ADEF800
:102B7C000450C1F8049003F118094D4508BFCEF874
:102B8C00041000219962DEF800100139CEF8001013
:102B9C00D3F814E0D3E90291C9F80810D968DEF82B
:102BAC000450C1F8049003F104094D4508BFCEF858
:102BBC00041000215961DEF800100139CEF8001024
:102BCC00D3F82CE021680CFB0EFA8E4502EB0A01BF
:102BDC00D1F8048088BFC4F800E0D8F80850C3F8D6
:102BEC000880DD60D8F80850C5F80490C8F8089043
:102BFC00596152F80A10013142F80A10DBF8001042
:102C0C00C96A8E4500D9376001680029A6D10BB17D
:102C1C00FFF712FD144D2C6844B10127114EFFF73C
:102C2C00C5FE00B13760013CF9D12C600D4B1B681F
:102C3C00002B3FF47FAF4FF080520C4B1B680C4BBA
:102C4C001A60BFF34F8FBFF36F8F012473E700BF80
:102C5C00C4000020BC00002008010020CC00002093
:102C6C005800002038010020040100204C000020F6
:102C7C0004ED00E010B5FFF785FE124B02681B68EF
:102C8C0051182CBF012400249A42016011D964B957
:102C9C00FFF746FF38B94FF080520B4B1A60BFF369
:102CAC004F8FBFF36F8F204610BD8B4204D300248F
:102CBC00EEE70CB98B42EBD2C81AFFF7CFFC01241C
:102CCC00E6E700BF3401002004ED00E0144B70B5C2
:102CDC001A68144B12B101221A6070BD1A60124BA3
:102CEC0014241E46114D2A6804FB02F1C858A0B1E9
:102CFC0058184468083164680B449C4208BFC36888
:102D0C00446008BF4360142303FB02635B68D9680B
:102D1C00074B19602A601B68DFE7013AE4E700BF44
:102D2C00C40000203801002058000020CC000020F6
:102D3C004C00002010B50C46044B1968183100F0FB
:102D4C003FFA2046BDE81040FFF788BC4C0000203D
:102D5C00C368F0B5DB689A6AD3E907018160196A28
:102D6C0003F1180448605068A04208BF516000216C
:102D7C0099621168013911601F4AD96A1268002AD8
:102D8C002DD1D3E902405A69A060D8681D1D44605A
:102D9C005468AC4208BF5060002058611068174C52
:102DAC0001381060164A1068814288BF11601422E5
:102DBC004A43A618706887689860DF6087687D60F2
:102DCC0085605E61A3580133A3500E4B1B68DB6A10
:102DDC00994285BF01200C4B00201860F0BD0B4AB6
:102DEC0050688568D8611D6285686C6084609A62E1
:102DFC00136801331360E8E7C4000020580000207A
:102E0C00CC0000204C0000203801002008010020DC
:102E1C00034B1B680360034B1B684360704700BF88
:102E2C00000100203401002038B504460D46FFF7A0
:102E3C00D9F80E4B0E491B682068096862688842F5
:102E4C0008D09A4206D8002301242B60FFF7DAF849
:102E5C00204638BD9B1A2A689A42F4D9D31A2046C8
:102E6C002B60FFF7D5FF0024F0E700BF34010020F2
:102E7C00000100200122014B1A607047380100202C
:102E8C00054B1B6833B1054B1B68002B0CBF022094
:102E9C0000207047012070471C010020C400002056
:102EAC00F8B50446002830D01E4AC36A116816468D
:102EBC00C96A8B422ED282691B4D002AA1BF32688F
:102ECC00D26AC2F105028261142202FB03534269E9
:102EDC009A421BD1071D384600F089F93368DA6A2B
:102EEC00124BE26219688A4288BF1A60142353435A
:102EFC00E9184A689068A260E06090684760976043
:102F0C00EA5861610132EA500120F8BD3368DB6A8E
:102F1C00C362F9E71368406CDC6AA0422CBF002046
:102F2C000120F2E74C00002058000020CC000020CB
:102F3C0070B5044608B9002070BD836CC16A426C40
:102F4C00013B91428364F6D0002BF4D1051D284639
:102F5C0000F04DF9626CC2F10503A3610B4BE26208
:102F6C0019688A4288BF1A60142353430849C81849
:102F7C0042689668A260E660966875609560CA586B
:102F8C0060610132CA500120D6E700BFCC0000209E
:102F9C005800002070B50446002830D0436C99428C
:102FAC0038BF1946C36A8B4229D0826C012A26D1BC
:102FBC008269134D002A4FF0140202FB035342693D
:102FCC00C162A4BFC1F1050181619A4217D1061DEE
:102FDC00304600F00CF90B4BE26A19688A4288BF44
:102FEC001A6014235343E9184A689068A260E060A1
:102FFC00906846609660EA5861610132EA5070BD93
:10300C0058000020CC000020034B186810B1836CD2
:10301C0001338364704700BF4C000020F8B5431E99
:10302C000A3363D800F1080414F0070305D0C3F188
:10303C000803DA43A24259D31C44304DFFF7A2FCDB
:10304C002B68F3B92E4A2F4853071DBFD11D21F011
:10305C00070102F5A0534FF4A0531CBF0A465B1A9C
:10306C0000211344083B23F0070341600260C3E9CD
:10307C000011991A2B60C2E90031234B1960234BC4
:10308C001960002C37DD214E3168A14233D31D4A23
:10309C0013685868A04201D21F684FBB2D689D422F
:1030AC0029D01568D3F800C0001B102805F10805BD
:1030BC00C2F800C005D91F1978605C6043F804C0E1
:1030CC00176058680A1A104932600C6840F00040CA
:1030DC00A24238BF0A6000221A600D4A5860136879
:1030EC0001331360FFF71CFD2846F8BD0024A4E74C
:1030FC001A463B46CDE70025F4E700BF3C01002013
:10310C0040010020501500204415002040150020DF
:10311C004815002038B5054600283AD050F8043C34
:10312C00002B36DA50F8082C002A32D123F0004359
:10313C0040F8043CA0F10804FFF724FC154A55F8AC
:10314C00041C13680B441360134B1A6894421ED86A
:10315C0058681D18AC4202BF1C46091859606068BB
:10316C0021188A4207D10D4909688A421FBF51684C
:10317C001268091861602260094AA34218BF1C60DA
:10318C00136801331360BDE83840FFF7C9BC134620
:10319C00DBE738BD40150020501500203C01002015
:1031AC004C1500204FF0FF3200F108034360C0E9DA
:1031BC0002230361002303607047002303617047FF
:1031CC000A6830B5531C0AD103695A684A60916089
:1031DC008B605960036808610133036030BD00F1F6
:1031EC0008035C6825689542EFD82346F9E7036924
:1031FC00D0E901128A60826851605968814208BF27
:10320C005A6000220261186801381860704700008B
:10321C0070B500250C4E0D4CA41BA410A54209D171
:10322C0000F054F800250A4E0A4CA41BA410A54229
:10323C0005D170BD56F8253098470135EEE756F8A4
:10324C00253098470135F2E7503300085033000819
:10325C00503300085433000810B5431E0A44914201
:10326C0000D110BD11F8014B03F8014FF7E70346ED
:10327C000244934200D1704703F8011BF9E70000A8
:10328C0000F023F80B480C490C4A002302E0D458F8
:10329C00C4500433C4188C42F9D3094A094C002396
:1032AC0001E013600432A242FBD3FFF7B1FFFEF73B
:1032BC00C5FB7047000000201400002058330008A4
:1032CC00140000201C160020FEE77047F8B500BF64
:1032DC00F8BC08BC9E467047F8B500BFF8BC08BCEB
:0432EC009E46704743
:1032F00002030405060708090A0B0C0D0E0F101037
:10330000010202030405060708090A0B0C0D0E0F43
:103310001010010253656E736F7253696D00437430
:10332000726C4C6F676963004D6F64627573436FB5
:103330006D6D0049444C4500000000000000000095
:10334000010203040607080900000000010203044B
:04335000310100083F
:043354000D0100085F
:103358000100000010000000AAAAAAAA04000000A8
:0433680000127A00D5
:040000050800328D30
:00000001FF
