:020000040800F2
:1000000000280020B9350008013600080136000834
:100010000136000801360008013600080000000023
:10002000000000000000000000000000451B000868
:1000300001360008000000009D1B00081918000888
:1000400001360008013600080136000801360008B4
:1000500001360008013600080136000801360008A4
:100060000136000801360008013600080136000894
:100070000136000801360008013600080136000884
:100080000136000801360008013600080136000874
:100090000136000801360008013600080136000864
:1000A0000136000801360008013600080136000854
:1000B0000136000801360008000000000136000883
:1000C00001360008000000000000000001360008B2
:1000D00000000000013600080136000800000000A2
:1000E0000136000801360008013600080000000053
:1000F0000000000000000000000000000000000000
:0C01000000000000000000005FF808F1A3
:10010C0010B5054C237833B9044B13B10448AFF345
:10011C0000800123237010BD780000200000000037
:10012C000436000808B5034B1BB103490348AFF371
:10013C00008008BD000000007C0000200436000890
:10014C00034613F8012B002AFBD1181A013870470B
:10015C007047000038B50E4B054618784FF47A738B
:10016C00B3FBF0F30B4A1068B0FBF3F000F030FB7C
:10017C00044658B90F2D09D8024629464FF0FF30D6
:10018C0000F0E4FA2046044B1D6038BD0120FCE76A
:10019C00000000207400002004000020074A08B56D
:1001AC001368032043F01003136000F0BDFA0F2016
:1001BC00FFF7D0FFFFF7CCFF002008BD0020024066
:1001CC00034A044B11681B780B441360704700BF43
:1001DC00C815002000000020014B1868704700BFB4
:1001EC00C815002038B50446FFF7F6FF0546631C1A
:1001FC001EBF044B1B78E418FFF7EEFF401BA04218
:10020C00FAD338BD0000002070470000F7B5002578
:10021C0004460E460195FFF7DFFF236807469A68F0
:10022C00D20508D50120A36A84F8245043F020039A
:10023C00A36203B0F0BD5A68D50503D4DB6A13F48E
:10024C00700F41D0424B02201D6800F03FFE226827
:10025C00404B1169B5FBF0F019423F4B56D1D568B4
:10026C003E490D4252D11169194260D1D26803F155
:10027C006E431A4214BF2923142303FB00F5019B80
:10028C00AB4225D2731C5DD0002E56D1019BAB42E4
:10029C0058D2A36A43F00403A36200230BE0701C42
:1002AC0013D066B923681B6813F002030CD1A26A41
:1002BC0042F00402A26284F824300320B9E7FFF76D
:1002CC008BFFC01BB042EDD8226813689907E6D5A6
:1002DC006FF0120322681360A36A43F40073A362E5
:1002EC00936803F46023B3F5602F2FD1237B002B8D
:1002FC002CD1A36A23F48073A362A06A10F48050FB
:10030C0024D1A36A43F00103A36292E71169194255
:10031C0003D1D168124B19420BD01169114B194200
:10032C0009D1D2681A4214BFFC235423A5E7292310
:10033C00A3E75423A1E7FC239FE7FFF74DFFC01B66
:10034C00B042A3D8019B0133019398E7002070E7DA
:10035C0074000020244992249224491224499200CA
:10036C0092244900499224000368D86C704700001D
:10037C00002373B5019390F82430012B6DD0012329
:10038C004D6880F82430062D026805EB85030C6857
:10039C0023D81F26556B053B9E4025EA060504FA1B
:1003AC0003F32B435363092C8B6804EB44054FF088
:1003BC0007012AD9D6681E3DA94026EA0101AB40A7
:1003CC000B43D360A4F11003012B26D90023002288
:1003DC0080F82420184602B070BD0C2D4FF01F057C
:1003EC0009D8166B233B9D4026EA050504FA03F356
:1003FC002B431363D7E7D66A413B9D4026EA05059C
:10040C0004FA03F32B43D362CDE71669A94026EA1D
:10041C000101AB400B431361D4E7114B9A4216D147
:10042C0093681B02D2D49368102C43F4000393609E
:10043C00CCD10C4B0C4A1B68B3FBF2F20A2353438E
:10044C000193019B002BC1D0019B013BF8E7836A10
:10045C0043F0200383620123B9E70223BAE700BF0C
:10046C00002401407400002040420F00002337B5E7
:10047C000193036804469A68D20702D5002003B0A2
:10048C0030BD9A6842F001029A60144B144A1B6802
:10049C00B3FBF2F30193019BE3B9FFF79DFE054615
:1004AC0023689B68DB07E9D4FFF796FE401B022804
:1004BC00F6D923689B6813F00103F1D1A26A84F882
:1004CC00243042F01002A262E26A012042F00102E2
:1004DC00E262D4E7019B013BDCE700BF7400002023
:1004EC0040420F0090F8243010B5012B044654D034
:1004FC00012380F82430FFF7B9FF002849D1A36A03
:10050C00274A23F4407323F0010343F48073A3625E
:10051C002368934204D123494A6812F4702F2ED1D8
:10052C00A26A22F48012A2625A68520541BFA26AE2
:10053C0022F4405242F48052A262A26A12F4805217
:10054C001CBFE26A22F00602E262002284F8242038
:10055C006FF002021A609A6802F46022B2F5602F02
:10056C0013D10F4A934205D1A2F58062526812F45E
:10057C00702F0AD19A6842F4A0029A6010BDA26A48
:10058C0042F48012A2624A68CFE79A6842F4801261
:10059C00F3E7002384F82430F0E70220EEE700BFF5
:1005AC00002801400024014038B5036804469A68CD
:1005BC00D10701D4002038BD9A6822F001029A605C
:1005CC00FFF70AFE054623689B68DB07F2D5FFF7A9
:1005DC0003FE401B0228F6D923689B68DA07F2D584
:1005EC00A36A012043F01003A362E36A43F0010302
:1005FC00E362E0E770B50446002870D0836A23B943
:10060C00C36280F82430FFF7FFFD2046FFF7CCFFD4
:10061C00A36A13F0100FA36A63D1002861D1E169BA
:10062C0023F48853626823F0020343F002030A4365
:10063C00A168A362237BB1F5807F42EA430237D0E5
:10064C00012914BF06464FF48076257D012D06D175
:10065C0083BBA369013B46EA433545F40066236836
:10066C00B1F5807F5D6825F4694545EA06055D6056
:10067C009E681E4D05EA060545EA02059D6001D0FF
:10068C00012920D1216901390905DD6A25F470059C
:10069C002943D9629968164B0B409A4215D1002315
:1006AC00E362A36A23F0030343F00103A36270BD6A
:1006BC000E46CAE7A36A43F02003A362E36A43F041
:1006CC000103E362CBE70021DFE7A36A23F0120307
:1006DC0043F01003A362E36A43F00103E3620120D9
:1006EC00E5E743F01003A362F9E700BFFDF7E1FF74
:1006FC00FE0E1FFF90F8243010B5012B044611D0CC
:10070C00012380F82430FFF74FFF38B9A36A23F494
:10071C00885323F0010343F00103A362002384F800
:10072C00243010BD0220FCE7074A0002D36800F415
:10073C00E06023F4E0631B041B0C43F0BF6343F441
:10074C0000330343D360704700ED00E0174B70B5E6
:10075C00DC684FF0FF36C4F30224C4F10705042D06
:10076C0004F1040328BF0425062B98BF002406FAC5
:10077C0005F388BF033C21EA0303A34006FA04F403
:10078C0022EA0404002843EA0403A8BF00F16040F5
:10079C004FEA0313B8BF064ADBB2ABBF00F56140AA
:1007AC0000F00F0080F80033135470BD00ED00E032
:1007BC0014ED00E0002808DB0123420900F01F00C3
:1007CC0003FA00F0014B43F82200704700E100E00F
:1007DC000138B0F1807F0AD2F021064B064A5860EE
:1007EC0082F823100020072298601A6070470120BD
:1007FC00704700BF10E000E000ED00E02DE9F74F7E
:10080C0000242646624BDFF89CC1DFF89CE10A68A5
:10081C0032FA06F502D103B0BDE8F08F4FF00108B3
:10082C0008FA06F802EA0802904579D14D68122DB3
:10083C0000F0A4807DD8022D00F09D8072D8002D90
:10084C0000F08480012D00F094804FF00F09FF2AF6
:10085C0093BF824606F18045083DD0F800B092BFA8
:10086C00B500D0F804B0AD0009FA05F82BEA080879
:10087C0004FA05F588BF00F1040A48EA0505CAF830
:10088C000050D1F804A01AF0805F49D0414F26F0F7
:10089C000308BD6908F1804845F00105BD61BD69DB
:1008AC0008F5803805F00105019506F0030B019D54
:1008BC004FEA8B0BD8F8085009FA0BF925EA09090D
:1008CC00354DA8425FD005F58065A8425DD005F591
:1008DC008065A8420CBF0225032505FA0BF545EAF5
:1008EC000905C8F808509D681AF4801F14BF1543F9
:1008FC0095439D60DD681AF4001F14BF15439543A2
:10090C00DD605D681AF4003F14BF154395435D60CC
:10091C001D681AF4803F14BF2A4325EA02021A60AC
:10092C00013674E7032D22D0112D8ED1CC680434FE
:10093C008BE71A4FBD4209D012D8DFF870904D45A5
:10094C0004D009F580394D457FF47FAF8C68C4B174
:10095C00012C0CBFC0F81080C0F81480082474E778
:10096C000F4FBD42F2D06545F0D07545ECE7002441
:10097C006BE7CC6869E7CC68083466E7CC680C3464
:10098C0063E7042461E70025A7E70125A5E700BF7D
:10099C00000401400010024000080140000021103A
:1009AC000000311000003210000022100000111065
:1009BC000AB1016170470904FBE7C36801EA03024D
:1009CC0021EA030141EA0241016170472DE9F3413B
:1009DC00054608B901203CE00368DB0710D42B68FE
:1009EC009F075DD42B68190700F194802B685A0778
:1009FC0000F1BE80E869002840F02C81002028E03E
:100A0C008F4C636803F00C03042B07D0636803F06E
:100A1C000C03082B09D16368DE0306D523689C03FD
:100A2C00DDD56B68002BDAD1D4E76B68B3F5803F6A
:100A3C0012D1236843F480332360FFF7CDFB0646C5
:100A4C0023689803CBD4FFF7C7FB801B6428F7D926
:100A5C00032002B0BDE8F0819BB9236823F48033F6
:100A6C002360236823F480232360FFF7B5FB06463D
:100A7C0023689903B3D5FFF7AFFB801B6428F7D924
:100A8C00E6E7B3F5A02F236803D143F4802323605A
:100A9C00CFE723F480332360236823F48023CBE750
:100AAC00674C636813F00C0F07D0636803F00C03FA
:100ABC00082B10D16368DA030DD423689B0702D589
:100ACC002B69012B86D123686A6923F0F80343EA6A
:100ADC00C203236086E72A695A4B6AB101221A6065
:100AEC00FFF77AFB064623689F07ECD4FFF774FBED
:100AFC00801B0228F7D9ABE71A60FFF76DFB06469F
:100B0C00236898077FF56EAFFFF766FB801B022802
:100B1C00F6D99DE7AA694A4C4B4BDAB101221A600F
:100B2C00FFF75AFB0646636A9B070DD54FF4FA5242
:100B3C00464B1B68B3FBF2F3019300BF019B5A1E9B
:100B4C000192002BF9D151E7FFF746FB801B0228DD
:100B5C00E9D97DE71A60FFF73FFB0646636A9F07FA
:100B6C007FF544AFFFF738FB801B0228F6D96FE7FF
:100B7C00334CE369D80024D40127E36943F0805354
:100B8C00E361E36903F080530093009B304E3368BC
:100B9C00D90518D5EB68012B26D1236A43F0010344
:100BAC002362FFF719FB41F288368046236A9B07C4
:100BBC003FD5002F3FF41EAFE36923F08053E36170
:100BCC0018E70027E2E7336843F480733360FFF7DC
:100BDC0003FB80463368DA05DCD4FFF7FDFAA0EBA3
:100BEC0008006428F6D933E7ABB9236A41F2883898
:100BFC0023F001032362236A23F004032362FFF72B
:100C0C00EBFA0646236A9807D3D5FFF7E5FA801B63
:100C1C004045F7D91CE7052B236A03D143F00403A5
:100C2C002362BAE723F001032362236A23F004034F
:100C3C00B6E7FFF7D1FAA0EB0800B042B6D907E748
:100C4C000010024000004242800442427400002026
:100C5C00007000402A4B5A681C4602F00C02082A0D
:100C6C003DD00023274E022833602BD1FFF7B4FA76
:100C7C000746236899011FD42B6AB3F5803F05D131
:100C8C006268A96822F400320A436260696A626889
:100C9C000B4322F474121343636001233360FFF798
:100CAC009BFA054623689A013FF5A8AEFFF794FA24
:100CBC00401B0228F6D9CBE6FFF78EFAC01B0228A0
:100CCC00D7D9C5E6FFF788FA054623689B017FF55F
:100CDC0095AEFFF781FA401B0228F6D9B8E6012839
:100CEC003FF4B7AE58682B6A00F480329A427FF416
:100CFC0071AE6B6A00F47010C01A18BF0120A8E620
:100D0C0000100240600042420D494B6803F00C0297
:100D1C00082A12D10B48C3F38342DB03825C09D54A
:100D2C0009484B685043094AC3F34043D35CB0FBBA
:100D3C00F3F070470648504370470348704700BFB4
:100D4C00001002401C36000800127A002C360008F5
:100D5C0000093D002DE9F0410D46044610B9012073
:100D6C00BDE8F081444A136803F007038B4228D393
:100D7C0021688E0730D4CA0743D43F4A136803F066
:100D8C000703AB4265D822683C4D12F0040F6CD1BE
:100D9C00130706D56B68226923F4605343EAC20338
:100DAC006B60FFF7B1FF6B68354AC3F30313D35C79
:100DBC00D840344B1860344B1868FFF7CBF900203F
:100DCC00CEE7136823F007030B431360136803F09B
:100DDC0007038B42C3D1CBE7284B11F0040F1EBF86
:100DEC005A6842F4E0625A60080742BF5A6842F4FB
:100DFC0060525A605A68A06822F0F00202435A60AE
:100E0C00B9E762681D4E012A33681AD113F4003F0A
:100E1C00A5D0736841F2883823F003031343736041
:100E2C00FFF7DAF907467368626803F00C03B3EB5B
:100E3C00820FA2D0FFF7D0F9C01B4045F3D9032095
:100E4C008EE7022A02D113F0007FE1E713F0020FC4
:100E5C00DEE7136823F007032B431360136803F0DA
:100E6C000703AB427FF47BAF8DE76B68E16823F43B
:100E7C00E0630B436B608BE70020024000100240E4
:100E8C00BC3600087400002004000020044B054A06
:100E9C005B68C3F30223D35C034A1068D8407047E5
:100EAC0000100240CC36000874000020044B054AA8
:100EBC005B68C3F3C223D35C034A1068D840704705
:100ECC0000100240CC36000874000020022808B53F
:100EDC0042D0102816D001284AD140F20231254ABE
:100EEC00136A1940B1F5817F3FD003F44073B3F519
:100EFC00007F28D149F64040536A13F0020F08BF17
:100F0C00002008BD1B4B5A68186810F08070F8D090
:100F1C00C2F383411848D20348BF5A68405C41BFB2
:100F2C001649C2F34042895C154A5B684CBFB2FB60
:100F3C00F1F2144A5B0202FB00F0E2D403234000FE
:100F4C00B0FBF3F0DDE7B3F5407F11D113684FF23E
:100F5C00244013F4003FD2E7FFF7A8FF054B5B6872
:100F6C00C3F3813301335B00EAE74FF40040C8E779
:100F7C000020C6E7001002402E3600083E3600085E
:100F8C0000127A0000093D0070470C2914D8DFE8E4
:100F9C0001F0071313130A1313130D13131310007B
:100FAC000368586B70470368986B70470368D86B7D
:100FBC0070470368186C704700207047194A10B5C9
:100FCC009042036805D0B0F1804F02D0164CA0427D
:100FDC0010D14C6823F07003904243EA040305D00F
:100FEC00B0F1804F02D0104A904203D1CA6823F46A
:100FFC00407313434A6923F08003134303608B68E7
:10100C00C3620B688362074B984204BF0B6903638E
:10101C00012343610369DB0742BF036923F001032A
:10102C00036110BD002C01400004004010B50446C3
:10103C0030B390F83D3003F0FF021BB980F83C2030
:10104C00FFF7A2FF0223206884F83D30211DFFF733
:10105C00B5FF0123002084F8463084F83E3084F834
:10106C003F3084F8403084F8413084F8423084F8C2
:10107C00433084F8443084F8453084F83D3010BD5A
:10108C000120FCE770B5056A046A104E24F00104D7
:10109C000462B042846915D0B0F1804F12D0A6F52D
:1010AC009436B0420ED044F001021B01DBB222F0A8
:1010BC00F0021A4301F00A0125F00A031943826178
:1010CC00016270BD24F003042243EEE7002C0140C2
:1010DC00F8B590F83C300546012B0C4600F08880A2
:1010EC00012085F83C0092B9CB68286806C9FFF747
:1010FC00C9FF2B68A1689A6922F00C029A619A695F
:10110C000A439A610020002385F83C30F8BD042A7C
:10111C0023D1D1E9002C2B68C9681E6A1F6A090308
:10112C0027F010071F62986989B220F4407040EADA
:10113C000C2020F470401201014302F0A00226F0B2
:10114C00A000024399611A629A69A16822F4406274
:10115C009A619A6942EA0122D3E7082A22D1D1E99D
:10116C0000202B68C9681E6A1F6A090127F4807762
:10117C001F62DF69C9B227F00307384320F0F00083
:10118C001202014302F4007226F400700243D9618A
:10119C001A62DA69A16822F00C02DA61DA690A4390
:1011AC00DA61AFE70C2AAED1D1E9002C2B68C96803
:1011BC001E6A1F6A090327F480571F62D86989B217
:1011CC0020F4407040EA0C2020F4704012030143DC
:1011DC0002F4005226F400500243D9611A62DA6913
:1011EC00A16822F44062DA61DA6942EA0122D7E7A7
:1011FC0002208BE710B50124036A01F01F018C401B
:10120C0023EA04030362036A8A401A43026210BD94
:10121C0010B5044651BB90F83E0094F84230C0B271
:10122C000128DBB24AD1012B49D10223002933D149
:10123C0084F83E3084F8423001222068FFF7DAFF50
:10124C0023681F4A934206D0B3F1804F03D0A2F516
:10125C009432934204D19A6802F00702062A03D012
:10126C001A6842F001021A60002028E0042905D116
:10127C0090F83F0094F84330C0B2D1E7082909BF79
:10128C0090F8400094F84100C0B294F844301CBF70
:10129C00C0B294F84530C3E7042904D184F83F3038
:1012AC0084F84330C8E708290BBF84F8403084F831
:1012BC00413084F8443084F84530BDE7012010BD3E
:1012CC00002C0140026802F10C0353E8003F23F4A8
:1012DC0090730C3242E8003102680029F2D102F11D
:1012EC00140353E8003F23F0010302F1140C4CE803
:1012FC0000310029F3D1036B012B0BD102F10C034C
:10130C0053E8003F23F0100302F10C0C4CE80031C1
:10131C000029F3D1202380F8423000230363704767
:10132C0010B504460368C1681A6922F440520A4396
:10133C001A6182680069D9680243606921F4B0516E
:10134C0021F00C0102430A43DA605A69A16922F4C4
:10135C0040720A435A610E4A934215D1FFF7A6FD1B
:10136C0019235843636864229B00B0FBF3F0B0FB75
:10137C00F2F102FB11031B013233B3FBF2F32468CD
:10138C0003EB0113A36010BDFFF780FDE8E700BF7E
:10139C0000380140F7B504460D4617461E46216835
:1013AC000B6835EA030301D1002021E0701CF7D053
:1013BC00FEF712FFC01B86421CD3DEB12068C36847
:1013CC005A07ECD5802DEAD0402DE8D003681B07D6
:1013DC00E5D50025019503680193436820460193E8
:1013EC00019BFFF76FFF08230120636484F84050D2
:1013FC0003B0F0BD0320FBE7704710B5044648B3BB
:10140C0090F8413003F0FF021BB980F84020FFF741
:10141C00F3FF2423226884F84130D368204623F458
:10142C000053D360FFF77CFF236800201A6922F475
:10143C0090421A615A6922F02A025A61DA6842F41F
:10144C000052DA602023606484F8413084F8423022
:10145C00606310BD0120FCE72DE9F843984690F835
:10146C0041300446202B0E46914641D1002941D0F3
:10147C00002A3FD021230025456480F84130FEF737
:10148C00ABFEA3680746B3F5805FA4F82490A4F8DC
:10149C00269003D123690BB935461E46E38C9BB2CB
:1014AC005BB943463A4640212046FFF773FF2023A1
:1014BC0084F8413058B9BDE8F88343463A46802158
:1014CC002046FFF767FF20B1202384F8413003202A
:1014DC00F1E722684EB935F8023BC3F308035360B9
:1014EC00E38C013B9BB2E384D8E716F8013BF6E7AB
:1014FC000220E0E70120DEE70023C28543642223BB
:10150C008285026980F84230816203681AB1DA6818
:10151C0042F48072DA605A69002042F001025A618A
:10152C00DA6842F02002DA60704770B490F84260DA
:10153C00202E06D141B13AB10024046370BCFFF7F0
:10154C00DBBF022070BC70470120FBE710B590B0E8
:10155C002022002107A801F00CFC1422002101A874
:10156C0001F007FC102301220224CDE90A234FF4D9
:10157C00601306A806940D940F93FFF727FA00B199
:10158C00FEE70F23CDE901344FF480630390CDE9DE
:10159C000430214601A8FFF7DDFB00B1FEE710B0D7
:1015AC0010BD000080B58CB0FEF7F8FDFFF7CEFF44
:1015BC001022002108A801F0DCFB824B00249A6960
:1015CC00012642F004029A619A697F4802F00402F3
:1015DC000292029A9A694FF0030942F008029A614A
:1015EC009A694FF0020802F008020392039A9A6972
:1015FC00764D42F010029A619A6902F01002049240
:10160C00049A9A6942F480429A619A6902F480427F
:10161C000592059A9A6942F400729A619A6902F4E9
:10162C0000720692069ADA6942F00102DA6101222E
:10163C00DB69114603F001030793079BFFF7B8F929
:10164C0000224FF400516248FFF7B2F908A9614833
:10165C00CDE908640A94FFF7D1F8062308A95D4880
:10166C00CDE90839FFF7CAF84FF4007308A95948B7
:10167C00CDE90838CDF82C90FFF7C0F84FF4806313
:10168C0008A95448CDE908340A94FFF7B7F808A91B
:10169C004D48CDE90866CDE90A48FFF7AFF84FF49D
:1016AC00005308A94A48CDE90836CDE90A48FFF7A6
:1016BC00A5F8052122462520FFF748F82520FFF73D
:1016CC0079F84FF4E13344492846C5E900130C235B
:1016DC00C5E902442C61C5E90534EC61FFF78DFEC8
:1016EC0000B1FEE73D4B3E4A98601A604FF4602211
:1016FC001873187558601846DA611E61FEF77AFF88
:10170C00044600B1FEE70146102208A801F031FBA7
:10171C004FF080424723334FC7E900234FF6FF7346
:10172C003846BC60C7E90334FFF780FC024600B1C1
:10173C00FEE74FF0040ACDE908060A9008A93846DE
:10174C00CDF82CA0FFF7C4FC044600B1FEE701461F
:10175C003846FFF75DFD4A462146304600F048FB0F
:10176C00214F224638600821052000F041FB1F4B19
:10177C00186008B33B68FBB132461D492846FFF799
:10178C00D4FE234680221B49CDE900641A4800F0A0
:10179C0055FD234680221949CDE90084184800F0F4
:1017AC004DFD23464FF480721649CDE900A416482E
:1017BC0000F044FD00F028FE4FF47A70FEF712FDA5
:1017CC00FAE700BF00100240000C0140FC1500209D
:1017DC00001001400008014000380140CC150020E9
:1017EC000024014044160020AC000020980000208A
:1017FC009400002040360008951A00084A3600086C
:10180C003118000854360008D119000808B5FEF745
:10181C00D7FC01F0B7F8012803D0BDE8084000F070
:10182C00D9B908BD01222DE9F041114694B02948DF
:10183C00FFF7BEF800224FF400512748FFF7B8F825
:10184C0000F030FE00230446244E254F224D8DF827
:10185C000E30DFF890800A2202A9306800F068FB95
:10186C000128024622D1BDF80830502B03D8BDF810
:10187C000C30822B28D9012100228DF80E1015482E
:10188C00FFF796F89DF80E10BDF80C30BDF8082047
:10189C00009104A8394601F075FA04A8FEF750FC33
:1018AC00322382B204A94046FFF7D6FD00F0FAFDC0
:1018BC00001BB0F57A7FCED34FF400512846FFF7CA
:1018CC007CF804F57A74C4E7002301468DF80E30D9
:1018DC00D5E700BF000C014000100140980000202B
:1018EC005F360008FC15002070B54FF6FF730446F8
:1018FC004AF20105221A92B2914201D8184670BDE3
:10190C0014F8012B5340082203F001065B080EB1BA
:10191C006B409BB2013A12F0FF02F5D1EAE70000EE
:10192C0008297FB504463CD10378012B39D1437883
:10193C00032B36D10621FFF7D7FFE279A37943EACF
:10194C00022383422DD1A378E278217942EA032243
:10195C00637943EA01231BB29CB21119042920DCE0
:10196C005B0040F201318DF802300023134DADF8CD
:10197C00001099B28C4216D86600B5B2E91C89B237
:10198C006846FFF7B1FF04AB1E4406F80D0C6A1D48
:10199C00000A06F80C0C642392B269460848FFF75B
:1019AC005BFD04B070BDD11835F811000DEB43018F
:1019BC00060ACE7008710133DBE700BF9C000020E3
:1019CC00FC15002008B5074D074C4FF0FF31286877
:1019DC0000F026FB0128F8D108212046FFF7A0FFD4
:1019EC00F3E700BFAC000020A400002010B50948AC
:1019FC00FEF778FD0A210748FEF708FC40B90548B8
:101A0C00FEF7B2FC84B20348FEF774FE204610BD0C
:101A1C000024F8E7CC1500201FB50123CDE90133D4
:101A2C00052301A905480393FEF7A2FC20B9FFF793
:101A3C00DDFF05B05DF804FB0020FAE7CC150020B3
:101A4C001FB501230222CDE90123052301A9064874
:101A5C000393FEF78DFC20B9FFF7C8FF05B05DF8C6
:101A6C0004FB0020FAE700BFCC15002008B50021CC
:101A7C000448FFF78AFA18B14CF25033B3FBF0F07C
:101A8C0008BD00BF441600201FB500238DF80E3092
:101A9C0000F008FD0E4C0190FFF7BEFFADF80800FA
:101AAC00FFF7CEFFADF80A009DF80E00FFF7DEFF42
:101ABC00ADF80C00206820B1002302A91A4600F0F2
:101ACC00B9F94FF4FA7101A800F056FEE4E700BF33
:101ADC0098000020002382B001934FF0500383F351
:101AEC001188BFF36F8FBFF34F8F019B002BFCD07E
:101AFC0002B0704706480068006880F3088862B638
:101B0C0061B6BFF34F8FBFF36F8F00DF00BF0000D4
:101B1C0008ED00E04FF0807340F8043C054B21F0D9
:101B2C00010140F8081C40F80C3C40F8202C4038CF
:101B3C00704700BFE11A0008074B19680868B0E845
:101B4C00F00F80F30988BFF36F8F4FF0000080F324
:101B5C0011884EF00D0E7047B00000204FF050036E
:101B6C0083F31188BFF36F8FBFF34F8F024A136853
:101B7C0001331360704700BF08000020034A13684C
:101B8C00013B13600BB983F31188704708000020E8
:101B9C00EFF30980BFF36F8F0D4B1A6820E9F00F3C
:101BAC0010602DE908404FF0500080F3118800F0D0
:101BBC000FFE4FF0000080F31188BDE80840196853
:101BCC000868B0E8F00F80F30988BFF36F8F704797
:101BDC00B000002008B54FF0500383F31188BFF319
:101BEC006F8FBFF34F8F00F063FC18B14FF0805232
:101BFC00024B1A60002383F3118808BD04ED00E04A
:101C0C000022054B05491A600A604FF6FF11044A81
:101C1C00116007221A60704710E000E018E000E045
:101C2C0014E000E010B500240B4B1A6842F47F025C
:101C3C001A601A6842F07F421A6043F8044CFFF7AE
:101C4C00DFFF064B1C60FFF755FF00F0C1FDFFF7EF
:101C5C0041FF204610BD00BF20ED00E00800002031
:101C6C0010B50446FFF77AFFA46BFFF787FFB4FAB1
:101C7C0084F0400910BD70B51546026C0446866BA5
:101C8C0042B905689DB9806800F0D4FEA5600136A4
:101C9C00A66370BD6DB9406801F060F86368226C92
:101CAC001344A2686360934201D3236863600020ED
:101CBC00EDE7C06801F052F8236CE2685B422168E2
:101CCC001A448A42E2603EBFA2689B18E360022D70
:101CDC00EDD10EB1013EEAE73046D8E703461A6C67
:101CEC0010B4084662B1D9689C681144A142D9600D
:101CFC0028BF196810BC28BFD960D96801F02EB86C
:101D0C0010BC704770B50446FFF728FF94F8455097
:101D1C0004F124066DB2002D14DCFF2384F8453049
:101D2C00FFF72CFFFFF71AFF94F8445004F110064C
:101D3C006DB2002D12DCFF2384F84430BDE87040F6
:101D4C00FFF71CBF636A002BE7D0304600F082FD22
:101D5C0008B100F011FE013D6DB2DCE72369002BE8
:101D6C00E9D0304600F076FD08B100F005FE013DEB
:101D7C006DB2DEE7F8B50D46044610B3C06B00B388
:101D8C00266CA0FB0667DFB9FFF7E8FED4E90F313C
:101D9C004B432268A763D0185B1A1344E360FF23FC
:101DAC00A06084F84430626084F8453055B104F189
:101DBC00100000F079FF04F1240000F075FF10E032
:101DCC000020F8BD236963B104F1100000F042FD5E
:101DDC0038B14FF08052054B1A60BFF34F8FBFF3F1
:101DEC006F8FFFF7CBFE0120EBE700BF04ED00E0A7
:101DFC0070B50D46064610B90024204670BDA1FBF7
:101E0C000023002BF8D1484310F1490FF4D8483087
:101E1C0000F086FE04460028EED03DB92060C4E9EF
:101E2C000F6501212046FFF7A5FFE6E700F1480307
:101E3C000360F4E72DE9FF47002604468A461F4657
:101E4C00B046DFF8E8900192FFF788FEA26BE36BD7
:101E5C009A4201D3022F19D13A4651462046FFF738
:101E6C000AFF636A1BB104F1240000F0F3FC38B1E3
:101E7C004FF080522D4B1A60BFF34F8FBFF36F8F13
:101E8C00FFF77CFE012004B0BDE8F087019D1DB971
:101E9C00FFF774FE0020F6E716B902A800F03AFD31
:101EAC00FFF76CFE00F0F6FAFFF758FE94F844309A
:101EBC00FF2B08BF84F8448094F84530FF2B08BFF3
:101ECC0084F84580FFF75AFE01A902A800F02EFD08
:101EDC0028BBFFF743FEA26BE36B9A420ED1FFF7D0
:101EEC004DFE019904F1100000F0A6FC2046FFF70E
:101EFC0009FF00F097FB48B10126A5E7FFF73EFE6E
:101F0C002046FFF7FFFE00F08DFBF5E74FF0805306
:101F1C00C9F80030BFF34F8FBFF36F8FECE720464B
:101F2C00FFF7F0FE00F07EFBB4E700BF04ED00E02D
:101F3C002DE9F043002604468846374685B0DFF885
:101F4C00DC900192FFF70AFEA56BD5B14146204605
:101F5C00FFF7C4FE2369013DA56363B104F11000D2
:101F6C0000F078FC38B14FF080522C4B1A60BFF364
:101F7C004F8FBFF36F8FFFF701FE012005B0BDE857
:101F8C00F083019D1DB9FFF7F9FD0020F6E716B9A6
:101F9C0002A800F0BFFCFFF7F1FD00F07BFAFFF7A1
:101FAC00DDFD94F84430FF2B08BF84F8447094F89E
:101FBC004530FF2B08BF84F84570FFF7DFFD01A902
:101FCC0002A800F0B3FCF0B92046FFF749FEA0B11F
:101FDC00019904F1240000F02FFC2046FFF792FE3B
:101FEC0000F020FB38B94FF08053C9F80030BFF334
:101FFC004F8FBFF36F8F0126A4E72046FFF782FEB9
:10200C0000F010FBF7E72046FFF77CFE00F00AFB20
:10201C002046FFF725FE0028EDD0B6E704ED00E0E2
:10202C002DE9F043002504462F462E4685B0DFF8F7
:10203C0014910191FFF792FDA36BE3B1013BA363F4
:10204C00236813B900F062FDA060236963B104F149
:10205C00100000F0FFFB38B14FF08052394B1A6082
:10206C00BFF34F8FBFF36F8FFFF788FD0125284615
:10207C0005B0BDE8F083DDF80480B8F1000F03D1A2
:10208C00FFF77CFD0025F2E717B902A800F042FC2F
:10209C00FFF774FD00F0FEF9FFF760FD94F8443093
:1020AC00FF2B08BF84F8446094F84530FF2B08BF21
:1020BC0084F84560FFF762FD01A902A800F036FC28
:1020CC0040BB2046FFF7CCFDF0B123683BB9FFF7CE
:1020DC0045FDA06800F066FC0546FFF74FFD019931
:1020EC0004F1240000F0A8FB2046FFF70BFE00F0E3
:1020FC0099FA38B94FF08053C9F80030BFF34F8FBD
:10210C00BFF36F8F012795E72046FFF7FBFD00F02B
:10211C0089FAF7E72046FFF7F5FD00F083FA204631
:10212C00FFF79EFD0028EDD0002DA0D0FFF716FD87
:10213C00616A19B1236B1968C1F10501A06800F03F
:10214C00ABFC9DE704ED00E0064A13681968064BEA
:10215C0019B94FF0FF321A6070471268D2681268D2
:10216C00F9E700BFB4000020600100202DE9F04128
:10217C000646114B114D1C68114B1F68114BD3F8BF
:10218C0000802868043000F0B4FD2B682968A4197D
:10219C005C6001F1040104D34046BDE8F04100F05D
:1021AC0091BD384600F08EFD074B1A68944238BF3B
:1021BC001C60BDE8F08100BF98010020B000002039
:1021CC00B4000020B800002060010020F8B50E4CCF
:1021DC000E4F0F4E236803B9F8BDFFF7BFFCFB6829
:1021EC00DD68281D00F085FD3368013B33602368F2
:1021FC00013B2360FFF7C2FC286B00F00DFD284665
:10220C0000F00AFDE6E700BF240100208401002055
:10221C00200100204FF0805508B5064E064CFFF704
:10222C00D5FF3368012BFAD92560BFF34F8FBFF36D
:10223C006F8FF4E7BC00002004ED00E02DE9F047BF
:10224C004FEA820A0746504689469846099E00F096
:10225C0067FC0546002800F09480542000F060FCD8
:10226C000446002800F08A80AAF1040A54220021B6
:10227C0000F07FFD2563554425F0070AB9F1000FE6
:10228C0040F08380089D04F10409042D28BF042527
:10229C004846E562656400F012FDC5F1050504F1E0
:1022AC00180000F00CFD2461A561646242463946B9
:1022BC005046FFF72FFC206006B13460FFF74EFC50
:1022CC00404B414D1A68414E01321A602A68002A6F
:1022DC006DD12C601B68012B22D13D4800F0E4FC31
:1022EC003C4800F0E1FC3C4800F0DEFCDFF81481D7
:1022FC003A4800F0D9FC3A4F3A4800F0D5FC404639
:10230C0000F0D2FC384600F0CFFC374800F0CCFC93
:10231C00364800F0C9FC364BC3F80080354B1F60C3
:10232C00354A136801331360344BE26A19688A42E8
:10233C0088BF1A60142353432549CF187A689068D4
:10234C00A260E0609068C0F80490C2F80890CA5887
:10235C0067610132CA50FFF711FC336863B12B6817
:10236C00DA6AE36A9A4207D24FF08052244B1A6021
:10237C00BFF34F8FBFF36F8F012004E0284600F0AE
:10238C004BFC4FF0FF30BDE8F08709F1FF3304F14F
:10239C00340209F10F0913F8011F02F8011B197817
:1023AC0009B19945F7D1002384F843306AE73368C3
:1023BC00002BB5D12B68DA6AE36A9A4298BF2C607D
:1023CC00AEE700BF20010020B000002080010020FB
:1023DC00BC000020D0000020E4000020F800002009
:1023EC00480100200C0100206C0100208401002019
:1023FC00B4000020B80000202C0100203001002087
:10240C0004ED00E03401002030B587B002AD0021AE
:10241C001022284600F0ADFC002317495A5CEA5400
:10242C0012B101330F2BF9D1002406AA134403F87F
:10243C00104C124B8022CDE900432946234610480C
:10244C00FFF7FCFE012803D00E4B1B6807B030BD14
:10245C004FF0500383F31188BFF36F8FBFF34F8F8F
:10246C004FF0FF32084B1A60084B1860084B1C6089
:10247C00FFF7D8FBE8E700BF843600085C010020BA
:10248C00212200080C0000206001002080010020A7
:10249C0098010020024A136801331360704700BF93
:1024AC0028010020014B1868704700BF98010020DC
:1024BC00514B2DE9F74F1B68002B40F097804F4B89
:1024CC001C6801341C605CB94D4A4E4B116818688D
:1024DC0010604D4A1960136801331360FFF734FE26
:1024EC004A4A0020136801929C42494910D2494B38
:1024FC001B68DA6A14235343CB58022B464B28BF74
:10250C0001201B68002B18BF012003B0BDE8F08F21
:10251C0007464FF0140B3A4EDFF804C133681B68C2
:10252C0023B94FF0FF33019A1360E0E73368DB689F
:10253C00DB685D68AC4202D2019B1D60D7E7D3F823
:10254C001480D3E902E5CEF80850DD68D8F80420F1
:10255C00C5F804E003F1040E724508BFC8F8045036
:10256C00D8F800505F61013DC8F80050D3F82880BE
:10257C00B8F1000F14D0D3E90752AA60D3F820A009
:10258C0003F11809CAF80450D8F804504D45D8F88E
:10259C00005008BFC8F804A0013D9F62C8F8005065
:1025AC00D3F82C80DCF800500BFB08FAA84501EBA3
:1025BC000A05D5F8049088BFCCF80080D9F808201B
:1025CC00C3F80890DA60D9F80820C2F804E0C9F81A
:1025DC0008E05D6151F80A30013341F80A300D4BC7
:1025EC001B68DB6A984588BF012097E70B4A0020DF
:1025FC0013680133136088E728010020980100203C
:10260C00B4000020B800002064010020600100200C
:10261C00BC000020B00000209C01002068010020BC
:10262C00300100202DE9F84FFFF798FA494B1A6852
:10263C00013A1A601B682BB10024FFF79FFA204661
:10264C00BDE8F88F444A1268002AF5D04348444C40
:10265C00444A4FF0140CDFF818B1434E012755E0F3
:10266C00C368DB68D3F828E0D3E90791C9F80810F0
:10267C00196ADEF80450C1F8049003F118094D45AD
:10268C0008BFCEF8041000219962DEF80010013961
:10269C00CEF80010D3F814E0D3E90291C9F8081071
:1026AC00D968DEF80450C1F8049003F104094D45D3
:1026BC0008BFCEF8041000215961DEF80010013972
:1026CC00CEF80010D3F82CE021680CFB0EFA8E45E6
:1026DC0002EB0A01D1F8048088BFC4F800E0D8F8F6
:1026EC000850C3F80880DD60D8F80850C5F804908D
:1026FC00C8F80890596152F80A10013142F80A10D2
:10270C00DBF80010C96A8E4500D9376001680029D2
:10271C00A6D10BB1FFF718FD144D2C6844B101275D
:10272C00114EFFF7C5FE00B13760013CF9D12C60AA
:10273C000D4B1B68002B3FF47FAF4FF080520C4BBE
:10274C001B680C4B1A60BFF34F8FBFF36F8F0124C4
:10275C0073E700BF28010020200100206C0100203D
:10276C0030010020BC0000209C01002068010020EA
:10277C00B000002004ED00E010B5FFF78BFE124B0B
:10278C0002681B6851182CBF012400249A42016076
:10279C0011D964B9FFF746FF38B94FF080520B4B93
:1027AC001A60BFF34F8FBFF36F8F204610BD8B4263
:1027BC0004D30024EEE70CB98B42EBD2C81AFFF716
:1027CC00D5FC0124E6E700BF9801002004ED00E0F1
:1027DC00144B70B51A68144B12B101221A6070BDFB
:1027EC001A60124B14241E46114D2A6804FB02F188
:1027FC00C858A0B158184468083164680B449C420E
:10280C0008BFC368446008BF4360142303FB026322
:10281C005B68D968074B19602A601B68DFE7013ACF
:10282C00E4E700BF280100209C010020BC00002030
:10283C0030010020B000002010B50C46044B196884
:10284C00183100F03FFA2046BDE81040FFF78EBC6F
:10285C00B0000020C368F0B5DB689A6AD3E90701C1
:10286C008160196A03F1180448605068A04208BFDF
:10287C005160002199621168013911601F4AD96AAF
:10288C001268002A2DD1D3E902405A69A060D86899
:10289C001D1D44605468AC4208BF50600020586154
:1028AC001068174C01381060164A1068814288BFB6
:1028BC00116014224A43A618706887689860DF601C
:1028CC0087687D6085605E61A3580133A3500E4B11
:1028DC001B68DB6A994285BF01200C4B00201860F5
:1028EC00F0BD0B4A50688568D8611D6285686C60C4
:1028FC0084609A62136801331360E8E728010020B2
:10290C00BC00002030010020B00000209C01002001
:10291C006C010020034B1B680360034B1B68436076
:10292C00704700BF640100209801002038B50446B0
:10293C000D46FFF713F90E4B0E491B68206809680A
:10294C006268884208D09A4206D8002301242B6082
:10295C00FFF714F9204638BD9B1A2A689A42F4D91D
:10296C00D31A20462B60FFF7D5FF0024F0E700BFF9
:10297C0098010020640100200122014B1A6070476D
:10298C009C010020054B1B6833B1054B1B68002BC9
:10299C000CBF0220002070470120704780010020EE
:1029AC0028010020F8B50446002830D01E4AC36A1E
:1029BC0011681646C96A8B422ED282691B4D002AB9
:1029CC00A1BF3268D26AC2F105028261142202FBF5
:1029DC00035342699A421BD1071D384600F089F90E
:1029EC003368DA6A124BE26219688A4288BF1A604D
:1029FC0014235343E9184A689068A260E060906819
:102A0C0047609760EA5861610132EA500120F8BDD5
:102A1C003368DB6AC362F9E71368406CDC6AA04276
:102A2C002CBF00200120F2E7B0000020BC000020E9
:102A3C003001002070B5044608B9002070BD836CCD
:102A4C00C16A426C013B91428364F6D0002BF4D1F5
:102A5C00051D284600F04DF9626CC2F10503A36117
:102A6C000B4BE26219688A4288BF1A6014235343E5
:102A7C000849C81842689668A260E6609668756056
:102A8C009560CA5860610132CA500120D6E700BF78
:102A9C0030010020BC00002070B50446002830D066
:102AAC00436C994238BF1946C36A8B4229D0826C59
:102ABC00012A26D18269134D002A4FF0140202FB21
:102ACC0003534269C162A4BFC1F1050181619A42FD
:102ADC0017D1061D304600F00CF90B4BE26A196851
:102AEC008A4288BF1A6014235343E9184A689068D5
:102AFC00A260E060906846609660EA5861610132BD
:102B0C00EA5070BDBC00002030010020034B186857
:102B1C0010B1836C01338364704700BFB000002098
:102B2C00F8B5431E0A3363D800F1080414F0070308
:102B3C0005D0C3F10803DA43A24259D31C44304DEB
:102B4C00FFF7A8FC2B68F3B92E4A2F4853071DBF7B
:102B5C00D11D21F0070102F5A0534FF4A0531CBF67
:102B6C000A465B1A00211344083B23F0070341601B
:102B7C000260C3E90011991A2B60C2E90031234BA2
:102B8C001960234B1960002C37DD214E3168A142AE
:102B9C0033D31D4A13685868A04201D21F684FBB3B
:102BAC002D689D4229D01568D3F800C0001B102851
:102BBC0005F10805C2F800C005D91F1978605C60E2
:102BCC0043F804C0176058680A1A104932600C6840
:102BDC0040F00040A24238BF0A6000221A600D4A41
:102BEC005860136801331360FFF71CFD2846F8BDCD
:102BFC000024A4E71A463B46CDE70025F4E700BFC6
:102C0C00A0010020A4010020B4150020A81500206C
:102C1C00A4150020AC15002038B5054600283AD084
:102C2C0050F8043C002B36DA50F8082C002A32D12C
:102C3C0023F0004340F8043CA0F10804FFF72AFC01
:102C4C00154A55F8041C13680B441360134B1A688F
:102C5C0094421ED858681D18AC4202BF1C46091875
:102C6C005960606821188A4207D10D4909688A4267
:102C7C001FBF51681268091861602260094AA3429B
:102C8C0018BF1C60136801331360BDE83840FFF7B0
:102C9C00C9BC1346DBE738BDA4150020B4150020D1
:102CAC00A0010020B01500204FF0FF3200F1080306
:102CBC004360C0E9022303610023036070470023D3
:102CCC00036170470A6830B5531C0AD103695A680E
:102CDC004A6091608B60596003680861013303603E
:102CEC0030BD00F108035C6825689542EFD8234697
:102CFC00F9E70369D0E901128A608268516059686A
:102D0C00814208BF5A6000220261186801381860BD
:102D1C007047000070B500250C4E0D4CA41BA41080
:102D2C00A54209D100F068FC00250A4E0A4CA41BF0
:102D3C00A410A54205D170BD56F825309847013531
:102D4C00EEE756F8253098470135F2E7D4360008FF
:102D5C00D4360008D4360008D836000810B5431E07
:102D6C000A44914200D110BD11F8014B03F8014FF8
:102D7C00F7E703460244934200D1704703F8011B66
:102D8C00F9E700000EB46FF0004100B59CB01DAB2C
:102D9C0002900690079104910848094953F8042BB6
:102DAC000591006802A9019300F066F80022029BCD
:102DBC001A701CB05DF804EB03B0704710000020D3
:102DCC000802FFFF2DE9F0478E6882469E420C46B2
:102DDC009046994637D88A8912F4906F31D00223E5
:102DEC00256809696F1A656905EB450595FBF3F5CF
:102DFC0009F101033B449D4238BF1D46530530D5B4
:102E0C00294600F02BFB064650B90C234FF0FF303F
:102E1C00CAF80030A38943F04003A381BDE8F087D2
:102E2C003A462169FFF79AFFA38923F4906343F094
:102E3C008003A38126613E4426604E466561ED1BEE
:102E4C00A5604E4500D94E4632464146206800F0FA
:102E5C009FFAA36800209B1BA36023681E44266076
:102E6C00DCE72A4600F054FB06460028E2D1216933
:102E7C00504600F0A7FAC8E72DE9F04F9DB0039338
:102E8C008B8980461D060C4616460FD50B696BB90F
:102E9C00402100F0E3FA2060206128B90C23C8F827
:102EAC0000304FF0FF30C7E04023636100230993EB
:102EBC0020238DF8293030234FF0010B8DF82A3068
:102ECC0037463D4615F8013B0BB1252B3ED1B7EBF0
:102EDC00060A0BD05346324621464046FFF772FF96
:102EEC00013000F0A480099B534409933B78002BDC
:102EFC0000F09D8000234FF0FF32CDE905230493B1
:102F0C0007938DF853301A932F46052217F8011B9F
:102F1C004F4800F02FFA049BD0B9D90644BF2022A9
:102F2C008DF853201A0744BF2B228DF853202A7892
:102F3C002A2A15D02F4600200A25079A394611F85F
:102F4C00013B303B092B4DD9B8B10FE02F46B8E708
:102F5C003F4A3D46801A0BFA00F018430490D3E721
:102F6C00039A111D12680391002A01DB079204E0F9
:102F7C00524243F00203079204933B782E2B0CD160
:102F8C007B782A2B33D1039B02371A1D1B680392C3
:102F9C00002BB8BF4FF0FF3305932E4D0322397829
:102FAC00284600F0E7F938B14023401B03FA00F043
:102FBC00049B0137034304933978062226487E1C70
:102FCC008DF8281000F0D6F9002838D0234B13BB0D
:102FDC00039B073323F0070308330393099B4B44EC
:102FEC0009936DE705FB023201200F46A6E700238B
:102FFC000A25194601370593384610F8012B303A4B
:10300C00092A03D9002BC8D00591C6E705FB01217D
:10301C0001230746F0E703AB00932246104B04A9AB
:10302C004046AFF30080B0F1FF3F8146D6D1A38973
:10303C005B063FF536AF09981DB0BDE8F08F03ABCA
:10304C0000932246064B04A9404600F081F8EAE7BB
:10305C00893600088F3600089336000800000000FF
:10306C00D12D00082DE9F04791461F468A680B695F
:10307C0006469342B8BF1346C9F8003091F8432076
:10308C000C46DDF8208012B10133C9F800302368FA
:10309C00990642BFD9F800300233C9F800302568D0
:1030AC0015F0060507D104F1190AE368D9F80020D8
:1030BC009B1AAB4229DC94F843302268003318BFCA
:1030CC00012392062ED404F1430239463046C04700
:1030DC00013021D02368E56803F00603042B18BFE8
:1030EC000025D9F800204FF0000908BFAD1AA368DD
:1030FC00226908BF25EAE5759342C4BF9B1AED18F7
:10310C001A344D451AD1002008E0012352463946A5
:10311C003046C047013003D14FF0FF30BDE8F08797
:10312C000135C2E73020E11881F843005A1C94F8AD
:10313C0045102244023382F84310C4E7012322468F
:10314C0039463046C0470130E6D009F10109D8E7CD
:10315C002DE9F04301F1430C0C46097E85B06E2934
:10316C001746064698460C9A00F0B38022D863297D
:10317C0036D00AD8002900F0B980582900F0838095
:10318C0004F1420584F8421032E0642901D0692927
:10319C00F6D120681368050603F104012AD51B68D3
:1031AC001160002B03DA2D225B4284F843206F4818
:1031BC000A2239E0732900F09D8008D86F2920D0AD
:1031CC007029DDD1236843F02003236003E07529C7
:1031DC0017D07829D4D17823654884F8453055E048
:1031EC00136804F14205191D1B68116084F8423004
:1031FC0001238CE01B6810F0400F116018BF1BB24C
:10320C00CFE713682568181D1060280601D51B68C8
:10321C0002E06806FBD51B886F2914BF0A2208221E
:10322C005248002184F843106568002DA560C0F257
:10323C009580216821F004012160002B3DD1002DE7
:10324C0040F08E806546082A0BD12368DB0708D531
:10325C00236962689A42DEBF302305F8013C05F110
:10326C00FF35ACEB05032361CDF800803B4603AA88
:10327C0021463046FFF7F6FE01304DD14FF0FF30BE
:10328C0005B0BDE8F083394884F84510136821680F
:10329C001D1D1B6815600A060BD5CA0744BF41F0FB
:1032AC00200121601BB9226822F02002226010222A
:1032BC00B7E74D0648BF9BB2EFE76546B3FBF2F1AB
:1032CC0002FB1133C35C05F8013D0B460029F5D117
:1032DC00B9E713682568181D6169106028061B681A
:1032EC0001D5196002E06A06FBD5198000236546FA
:1032FC002361B9E71368191D11601D68626800210C
:10330C00284600F037F808B1401B60606368236101
:10331C00002384F84330A7E723692A463946304610
:10332C00C0470130AAD023689B0713D4E068039BE5
:10333C009842B8BF1846A3E701234A46394630469F
:10334C00C04701309AD00135E368039A9B1AAB420F
:10335C00F2DCEBE7002504F11909F5E7002BACD101
:10336C00037804F1420584F842306CE79A36000881
:10337C00AB36000810B5C9B202449042034601D1E5
:10338C00002303E01C7801308C42F6D1184610BDA6
:10339C00884210B501EB020307D8421E99420AD0AD
:1033AC0011F8014B02F8014FF8E78342F5D9811867
:1033BC00D21AD34200D110BD13F8014D01F8014DC2
:1033CC00F7E7000038B50546002943D051F8043C16
:1033DC000C1F002BB8BFE41800F0D0F81E4A13687D
:1033EC00104633B9636014602846BDE8384000F0DD
:1033FC00C6B8A3420BD921686218934201BF1A6860
:10340C005B685218226063600460EDE713465A68EB
:10341C000AB1A242FAD919685818A0420BD12068F7
:10342C000144581882421960DED110685268014478
:10343C0019605A60D8E702D90C232B60D4E72068B6
:10344C0021188A4201BF1168526809182160626014
:10345C005C60C9E738BD00BFBC15002070B5CD1C41
:10346C0025F0030508350C2D38BF0C25002D06461C
:10347C0001DBA94203D90C233360002070BD00F09E
:10348C007DF8214A1468214691B9204C23681BB958
:10349C00304600F063F820602946304600F05EF8B4
:1034AC00431C24D10C233046336000F068F8E4E769
:1034BC000B685B1B18D40B2B0FD90B60CC18CD50A1
:1034CC00304600F05CF804F10B00231D20F00700DF
:1034DC00C31AD3D05A42E250D0E74B688C4216BF85
:1034EC00636013600C46EBE70C464968CCE7C41CE0
:1034FC0024F00304A04205D0211A304600F02EF827
:10350C000130CFD02560DBE7BC150020C0150020B2
:10351C00F8B5074614460E4621B9BDE8F8401146E9
:10352C00FFF79CBF22B9FFF74DFF25462846F8BD93
:10353C0000F026F8A0420FD221463846FFF78EFF46
:10354C0005460028F2D031462246FFF707FC3146EB
:10355C003846FFF737FFE9E73546E7E738B500238C
:10356C00054C05460846236000F012F8431C02D1B6
:10357C00236803B12B6038BD8C1600207047704750
:10358C0051F8043C181F002BBCBF0B58C0187047D7
:10359C00044A05491368002B08BF0B4618441060F9
:1035AC0018467047C41500209016002000F023F830
:1035BC000B480C490C4A002302E0D458C450043385
:1035CC00C4188C42F9D3094A094C002301E013605A
:1035DC000432A242FBD3FFF79DFBFDF7E3FF7047DC
:1035EC000000002078000020DC3600087800002065
:1035FC0090160020FEE77047F8B500BFF8BC08BC79
:10360C009E467047F8B500BFF8BC08BC9E46704794
:10361C0002030405060708090A0B0C0D0E0F101007
:10362C00010202030405060708090A0B0C0D0E0F14
:10363C001010010253656E736F7253696D00437401
:10364C00726C4C6F676963004D6F64627573436F86
:10365C006D6D0054656D703A2025642043207C20EC
:10366C00447573743A202564207C205374617475FE
:10367C00733A2025640D0A0049444C4500232D3033
:10368C002B2000686C4C006566674546470030315E
:10369C0032333435363738394142434445460030AD
:1036AC0031323334353637383961626364656600DC
:1036BC0000000000000000000102030406070809D6
:0836CC000000000001020304EC
:0436D40031010008B8
:0436D8000D010008D8
:1036DC000100000010000000AAAAAAAA0400000021
:1036EC00140000200000000000000000000000009A
:1036FC0000000000000000000000000000000000BE
:10370C0000000000000000000000000000000000AD
:10371C00000000000000000000000000000000009D
:10372C00000000000000000000000000000000008D
:10373C00000000000000000000000000000000007D
:08374C000000000000127A00E9
:04000005080035B901
:00000001FF
